:020000040200F8
:10000000C871002255190002952100020B0500025B
:1000100065190002651900026519000265190002E0
:100020000000000000000000000000006519000250
:10003000651900020000000043040002E13D0002D7
:1000400031330002BB3100026F340002C1340002C0
:1000500000000000000000000000000000000000A0
:100060000000000000000000000000000000000090
:100070000000000000000000000000000000000080
:100080000000000000000000000000000000000070
:100090000000000000000000000000000000000060
:1000A0000000000000000000000000000000000050
:1000B0000000000000000000000000000000000040
:1000C0000000000000000000000000000000000030
:1000D0000000000000000000000000000000000020
:1000E0000000000000000000000000000000000010
:1000F0000000000000000000000000000000000000
:1001000000000000000000000000000000000000EF
:1001100000000000000000000000000000000000DF
:1001200000000000000000000000000000000000CF
:1001300000000000000000000000000000000000BF
:1001400000000000000000000000000000000000AF
:10015000000000000000000000000000000000009F
:10016000000000000000000000000000000000008F
:10017000000000000000000000000000000000007F
:10018000000000000000000000000000000000006F
:10019000000000000000000000000000000000005F
:1001A000000000000000000000000000000000004F
:1001B000000000000000000000000000000000003F
:1001C000FFFFFFFFFFFFFFFFFFFFFFFFFFFFFFFF3F
:1001D000FFFFFFFFFFFFFFFFFFFFFFFFFFFFFFFF2F
:1001E000FFFFFFFFFFFFFFFFFFFFFFFFFFFFFFFF1F
:1001F000FFFFFFFFFFFFFFFFFFFFFFFFFFFFFFFF0F
:100200000348044B834202D0034B03B118477047A5
:10021000640300226403002200000000064B07492B
:10022000C91A891048BF0131491003D0044B0BB1E2
:1002300001481847704700BF64030022640300228E
:100240000000000010B5064C237843B9FFF7D8FF33
:10025000044B13B10448AFF300800123237010BD99
:100260009003002200000000CC16010208B5044BE8
:100270001BB104490448AFF30080BDE80840CDE756
:100280000000000094030022CC16010280B500AFEC
:1002900000F042FC0346184680BD80B489B000AF30
:1002A00078607B683B613B6953E8003FFB60FB681B
:1002B000FB61FB69BB607B68BB61BA68B96941E8F7
:1002C00000237B617B69002BEBD1FB691846243747
:1002D000BD465DF8047B704780B489B000AF78609C
:1002E00039607B687B617B6953E8003F3B613B6819
:1002F000FB607B68FB61FA68F96941E80023BB6138
:10030000BB69002BEDD100BF00BF2437BD465DF8AF
:10031000047B704780B489B000AF786039607B6837
:100320003B613B6953E8003FFB60FB68FB61FA6996
:100330003B681344BB607B68BB61BA68B96941E83C
:1003400000237B617B69002BE9D1FB6918462437C8
:10035000BD465DF8047B704780B489B000AF78601B
:1003600039607B683B613B6953E8003FFB60FB6899
:10037000FB61FA693B68D31ABB607B68BB61BA68F2
:10038000B96941E800237B617B69002BE9D1FB69F6
:1003900018462437BD465DF8047B704780B489B0A9
:1003A00000AF78607B687B617B6953E8003F3B610D
:1003B0000023FB607B68FB61FA68F96941E8002370
:1003C000BB61BB69002BEDD100BF00BF2437BD4628
:1003D0005DF8047B704780B489B000AF78607B68BB
:1003E0003B613B6953E8003FFB60FB68FB61012315
:1003F000BB607B68BB61BA68B96941E800237B6177
:100400007B69002BEBD1FB6918462437BD465DF8AC
:10041000047B7047EFF3108072B6704780F310884A
:100420007047484A1368012B04D04FF00103136052
:10043000454A1060454A116045484FF080510160BF
:100440007047EFF3108272B63E48016879B34FF0FF
:10045000000101603C48016891B1EFF309811EF091
:10046000100F08BF21ED108B21E9F00F4FF00004B1
:100470001EF0100F08BF012441F8044D0068016010
:1004800000B500F0D5FA5DF804EB30490968096859
:1004900008C9B1E8F00F002B18BFB1EC108B81F345
:1004A00009884EF0100E002B18BF2EF0100E82F3AC
:1004B00010884EF0040E704724490860EFF3148250
:1004C00022F0040282F314881F494FF000000860F4
:1004D0001C494FF0010008601E481F49D0F8002059
:1004E00041EA020101601A484FF0805101601B4847
:1004F0000068006800BF80F3088861B662B6BFF389
:100500004F8FBFF36F8F704700BFEFF308801EF06F
:10051000040F01D0EFF3098020E9F00F40F804ED5B
:1005200040F804ED1EF0040F02D080F3098801E0CA
:1005300080F3088800B500F0B9F95DF804EB4EF0DF
:10054000040E7047B4030022AC030022B003002263
:1005500004ED00E020ED00E00000FFFF08ED00E00A
:1005600080B489B000AFF860B9607A603B607B68A6
:100570000433BB61BB6923F00703BB61BB69443B28
:10058000BB61BB697B610023FB6108E0FB699B00E9
:100590007A691344154A1A60FB690133FB61FB69F0
:1005A000102BF3D9BA687B695A627B6900229A6280
:1005B0007B690022DA627B6900221A637B69002270
:1005C0005A633A687B699A63FA687B69DA637B6984
:1005D0004FF080721A647B6900221A60BB6918466A
:1005E0002437BD465DF8047B704700BFEFBEADDE2B
:1005F00080B500AF25480AF021FB254B1B889BB234
:10060000194624480AF01AFB214B1B889BB203F0C1
:100610000103002B02D020480AF010FB1C4B1B8862
:100620009BB203F00203002B02D01C480AF006FB29
:10063000174B1B889BB203F00403002B02D0184811
:100640000AF0FCFA124B1B889BB203F00803002B44
:1006500002D014480AF0F2FA0D4B1B889BB203F447
:100660008073002B02D010480AF0E8FA084B1B8870
:100670009BB203F40073002B02D00C480AF0DEFAA0
:100680000B480AF0DBFA00BF80BD00BF68DF000244
:100690002AED00E078DF000290DF00029CDF00021C
:1006A000A8DF0002B0DF0002B8DF0002C4DF0002F2
:1006B000D0DF000280B500AF26480AF0BFFA264B13
:1006C0001B78DBB2194625480AF0B8FA224B1B7892
:1006D000DBB203F00103002B02D021480AF0AEFA8E
:1006E0001D4B1B78DBB203F00203002B02D01D4828
:1006F0000AF0A4FA184B1B78DBB203F00403002BBA
:1007000002D019480AF09AFA134B1B78DBB203F0B7
:100710000803002B02D015480AF090FA0E4B1B7804
:10072000DBB203F01003002B02D011480AF086FA66
:10073000094B1B78DBB25BB2002B06DA0D4B1B6852
:1007400019460D480AF07AFA02E00C480AF076FAE7
:1007500000BF80BDD4DF000229ED00E0E0DF000231
:10076000F8DF000204E0000210E0000220E00002D6
:100770002CE0000238ED00E034E00002D0DF00029F
:1007800080B500AF21480AF059FA214B1B78DBB243
:10079000194620480AF052FA1D4B1B78DBB203F0D1
:1007A0000103002B02D01C480AF048FA184B1B78B2
:1007B000DBB203F00203002B02D018480AF03EFA25
:1007C000134B1B78DBB203F00803002B02D0144854
:1007D0000AF034FA0E4B1B78DBB203F01003002B47
:1007E00002D010480AF02AFA094B1B78DBB25BB240
:1007F000002B06DA0C4B1B6819460C480AF01EFA4F
:1008000002E00B480AF01AFA00BF80BD44E0000283
:1008100028ED00E058E0000270E000027CE00002F9
:1008200088E0000294E0000234ED00E0A0E0000265
:10083000D0DF000280B500AF164B1B6803F0020347
:10084000002B02D014480AF0F9F9124B1B6803F090
:100850008043002B14D0114B1B78DBB2002B01D04E
:10086000FFF728FF0E4B1B78DBB2002B01D0FFF700
:1008700087FF0C4B1B889BB2002B01D0FFF7B8FE03
:10088000044B1B68002B02DA07480AF0D7F900BFB7
:1008900080BD00BF2CED00E0B0E0000229ED00E0DB
:1008A00028ED00E02AED00E0C8E0000280B586B047
:1008B00000AF78607B6828337B617B6804333B61E1
:1008C000474B1B68002B07D0454B1B68786998473E
:1008D000F860FB68002B7FD03B691B6C19464148D0
:1008E0000AF0ACF93B695B6A19463F480AF0A6F981
:1008F0003B699B6A19463D480AF0A0F93B69DB6AEF
:1009000019463B480AF09AF93B691B6B194639486E
:100910000AF094F93B695B68194637480AF08EF98A
:100920003B699B68194635480AF088F93B69DB68E2
:10093000194633480AF082F93B691B691946314868
:100940000AF07CF93B695B6919462F480AF076F991
:100950003B699B6919462D480AF070F93B69DB69D0
:1009600019462B480AF06AF93B691B6A194629485F
:100970000AF064F93B695B6B194627480AF05EF997
:100980003B699B6B194625480AF058F93B69DB6BBC
:10099000194623480AF052F97B681B6803F00403E8
:1009A000002B09D00BF0D0FF034619461D480AF072
:1009B00045F906F087FC02E01B480AF03FF97B6826
:1009C0001B6803F01003002B02D118480AF036F917
:1009D000FFF730FF00BFFDE700BF1837BD4680BD01
:1009E000B8030022D8E00002E8E00002F8E00002CC
:1009F00008E1000218E1000228E1000238E10002EB
:100A000048E1000258E1000268E1000278E10002DA
:100A100088E1000298E10002A8E10002B8E10002CA
:100A2000C8E10002D8E10002F8E1000214E200028D
:100A300080B582B000AF0BF087FF03465B6A7B6036
:100A40007B6883F30B8800BF0837BD4680BD80B448
:100A500083B000AF78607B6893FAA3F3B3FA83F3B3
:100A60007A68002A01D14FF0FF33013318460C3762
:100A7000BD465DF8047B704780B485B000AF7860F8
:100A80000023FB607B68002B02DA7B685B427B60A3
:100A90000023FB600FE00D4AFB6852F833307A68A0
:100AA0009A4205D1094AFB68DB0013445B6806E003
:100AB000FB680133FB60FB680E2BECD9044B184636
:100AC0001437BD465DF8047B704700BF000000226C
:100AD000B0E2000280B584B000AF78600023FB6014
:100AE00009F0DEFF0346002B03D00A4A7B6813603F
:100AF0000CE00BF029FFF860FB68002B03D1054ADE
:100B00007B68136002E0FB687A68DA621037BD46E2
:100B100080BD00BFBC03002280B582B000AF0023BF
:100B20007B6009F0BDFF0346002B01D0074B09E0B5
:100B30000BF00AFF78607B68002B02D07B682C33B7
:100B400000E0024B18460837BD4680BDBC030022BA
:100B50000CB480B584B000AF786039600023FB60CE
:100B600007F11C03BB60BB68BA693968786800F09C
:100B7000DDFBF860FB6818461037BD46BDE88040D5
:100B800002B0704780B48BB000AFF860B9607A6093
:100B900000237B62FB683B6200237B610023FB61D7
:100BA000BB68FB767B68032B44D9FB6803F0030327
:100BB000002B3FD1FB68FB6100237B6208E007F15B
:100BC00014027B6A1344FA7E1A707B6A01337B62DB
:100BD0007B6A032BF3D916E0FB691A1DFA617A6967
:100BE0001A60FB691A1DFA617A691A60FB691A1D9D
:100BF000FA617A691A60FB691A1DFA617A691A60EA
:100C00007B68103B7B607B680F2BE5D807E0FB69B6
:100C10001A1DFA617A691A607B68043B7B607B6805
:100C2000032BF4D8FB693B6204E03B6A5A1C3A622E
:100C3000FA7E1A707B685A1E7A60002BF5D1FB6829
:100C400018462C37BD465DF8047B704780B48BB0E6
:100C500000AFF860B9607A60FB687B62BB683B629A
:100C60000023FB610023BB617B687B617B690F2BE9
:100C70004DD93A6A7B6A134303F00303002B46D134
:100C80007B6AFB613B6ABB6122E0BA69131DBB61F1
:100C9000FB69191DF96112681A60BA69131DBB61FD
:100CA000FB69191DF96112681A60BA69131DBB61ED
:100CB000FB69191DF96112681A60BA69131DBB61DD
:100CC000FB69191DF96112681A607B69103B7B6131
:100CD0007B690F2BD9D80AE0BA69131DBB61FB6988
:100CE000191DF96112681A607B69043B7B617B699D
:100CF000032BF1D8FB697B62BB693B6207E03A6A70
:100D0000531C3B627B6A591C796212781A707B69AA
:100D10005A1E7A61002BF2D1FB6818462C37BD466B
:100D20005DF8047B704780B487B000AFF860B960AD
:100D30007A60FB687B61BB683B613A697B699A4278
:100D400026D23A697B6813447A699A4220D27A693A
:100D50007B6813447B613A697B6813443B6109E01B
:100D60003B69013B3B617B69013B7B613B691A78D5
:100D70007B691A707B685A1E7A60002BF0D10CE0F8
:100D80003A69531C3B617B69591C796112781A706E
:100D90007B685A1E7A60002BF2D1FB6818461C371C
:100DA000BD465DF8047B704780B489B000AFF86041
:100DB000B9607A600023FB610023BB6100237B6183
:100DC000FB68FB61BB68BB6112E0FB691B781A46DC
:100DD000BB691B78D31A7B617B69002B0CD1FB6943
:100DE0000133FB61BB690133BB617B68013B7B6005
:100DF0007B68002BE9D100E000BF7B6918462437EF
:100E0000BD465DF8047B704780B487B000AFF860E2
:100E1000B9607A607B68002B21D0FB687B61BB687E
:100E20003B613A69531C3B617B69591C79611278BB
:100E30001A701B78002B0CD104E07B695A1C7A6174
:100E400000221A707B68013B7B607B68002BF4D129
:100E500005E07B68013B7B607B68002BE1D1FB6890
:100E600018461C37BD465DF8047B704780B485B0DA
:100E700000AF786039607B68FB6009E03B681A78F6
:100E80007B681A707B6801337B603B6801333B6091
:100E90003B681B78002BF1D17B6800221A70FB683D
:100EA00018461437BD465DF8047B704780B487B0A0
:100EB00000AFF860B9607A600023FB7515E0FB684D
:100EC0001A78BB68591CB9601B78D31ADBB2FB7562
:100ED00097F91730002B0BD1FB685A1CFA601B786E
:100EE000002B05D07B68013B7B607B68002BE6D143
:100EF00097F9173018461C37BD465DF8047B7047DC
:100F000080B483B000AF7860396005E07B6801335E
:100F10007B603B6801333B607B681B78002B05D00E
:100F20007B681A783B681B789A42EFD07B681B7805
:100F30001A463B681B78D31A18460C37BD465DF835
:100F4000047B704780B485B000AF78600023FB60FD
:100F50007B68FB6002E0FB680133FB60FB681B7889
:100F6000002BF8D1FA687B68D31A18461437BD46AF
:100F70005DF8047B704780B485B000AF786039605D
:100F80007B681B683A68B3FBF2F101FB02F29B1A23
:100F9000FB607B681A683B68B2FBF3F27B681A60FF
:100FA000FB6818461437BD465DF8047B704780B473
:100FB00085B000AF78600023FB600EE0FA6813464E
:100FC0009B0013445B0018467B681B68591C7A68B9
:100FD00011601B780344303BFB607B681B681B7807
:100FE000303B092BEAD9FB6818461437BD465DF83B
:100FF000047B704780B592B000AFF860B9607A604A
:101000003B60002387F83B30002387F8473007F127
:1010100010032022002118460CF01CFCBB6D7B63E2
:1010200000233B6300233B640023FB637B6DFB6376
:10103000FB6D03F04003002B01D0934B00E0934B7A
:101040003B63FB6D03F01003002B03D0FB6D23F01B
:101050000103FB65FB6D03F00103002B01D030237E
:1010600000E0202387F83B30002387F84730FB6DF2
:1010700003F00203002B46D03B6D6C2B15D03B6D6B
:101080006C2B1CDC3B6D4C2B0FD03B6D682B16D1B1
:101090007B681BB2002B1CDA2D2387F847307B6856
:1010A0009BB25B429BB27B6013E07B68002B12DA41
:1010B0002D2387F847307B685B427B600BE07B68C1
:1010C000002B0ADA2D2387F847307B685B427B6070
:1010D00003E000BF02E000BF00E000BF97F8473028
:1010E0002D2B10D0FB6D03F00403002B03D02B231A
:1010F00087F8473007E0FB6D03F00803002B02D0B0
:10110000202387F84730FB6D03F02003002B0FD01E
:101110003B68022B02D03B68102B03D1FB6B023BD8
:10112000FB6305E03B68082B02D1FB6B013BFB63D3
:1011300000233B647B68002B19D13B6C5A1C3A643A
:1011400048333B44302203F8382C13E03B1D396808
:101150001846FFF710FF03461A463B6B1A443B6CD8
:10116000591C3964127848333B4403F8382C7B68A7
:10117000002BEBD13A6CBB6D9A4201DD3B6CBB6539
:10118000FA6BBB6DD31AFB63FB6D03F01103002BED
:1011900019D197F84730002B10D0FB6B002B0DDDD9
:1011A000FB6B013BFB6309E0FA68BB689A4202D221
:1011B000FB6820221A70FB680133FB60FB6B5A1E30
:1011C000FA63002BF0DC97F84730002B0DD0FA685B
:1011D000BB689A4203D2FB6897F847201A70FB6BF2
:1011E000013BFB63FB680133FB60FB6D03F02003F5
:1011F000002B43D03B68022B14D1FA68BB689A429B
:1012000002D2FB6830221A70FB680133FB60FA6877
:10121000BB689A4202D2FB6862221A70FB680133F3
:10122000FB602BE03B68082B0AD1FA68BB689A4246
:1012300002D2FB6830221A70FB680133FB601DE0AC
:101240003B68102B1AD1FA68BB689A4202D2FB683D
:1012500030221A70FB680133FB60FA68BB689A425F
:1012600009D2FB6D03F04003002B01D0582200E0AF
:101270007822FB681A70FB680133FB60FB6D03F09A
:101280001003002B1FD10EE0C0E20002D4E20002E6
:10129000FA68BB689A4203D2FB6897F83B201A7041
:1012A000FB680133FB60FB6B5A1EFA63002BEFDC1B
:1012B00009E0FA68BB689A4202D2FB6830221A70D1
:1012C000FB680133FB60BB6D5A1EBA653A6C9A42EB
:1012D000EFDB0DE0FA68BB689A4206D207F1100214
:1012E0003B6C13441A78FB681A70FB680133FB608F
:1012F0003B6C5A1E3A64002B0DDD7B6B002BE9D151
:1013000009E0FA68BB689A4202D2FB6820221A7090
:10131000FB680133FB60FB6B5A1EFA63002BF0DCA9
:10132000FB6818464837BD4680BD00BF80B592B007
:1013300004AFF860B9607A603B6000237B630023F0
:101340003B630023FB620023BB6200237B6200231C
:10135000FB7400233B620023FB770023BB77002351
:101360007B770023BB6100237B61FB68BB62FA686B
:10137000BB6813447B627A6AFB689A4280F0CE8233
:101380004FF0FF337B627A6AFB68D31ABB60C5E219
:101390007B681B78252B0BD0BA6A7B6A9A4203D2F2
:1013A0007B681A78BB6A1A70BB6A0133BB62B2E20F
:1013B0000023BB777B6801337B607B681B782D2B18
:1013C00004D1BB7F43F01003BB77F3E77B681B7846
:1013D0002B2B04D1BB7F43F00403BB77EAE77B6888
:1013E0001B78202B04D1BB7F43F00803BB77E1E7D8
:1013F0007B681B78232B04D1BB7F43F02003BB7792
:10140000D8E77B681B78302B04D1BB7F43F0010306
:10141000BB77CFE700BF4FF0FF33BB617B681B7822
:10142000303B092B05D83B1D1846FFF7C0FDB861BE
:1014300015E07B681B782A2B11D17B6801337B6018
:101440003B681A1D3A601B68BB61BB69002B06DA5A
:10145000BB695B42BB61BB7F43F01003BB774FF0BE
:10146000FF337B617B681B782E2B1ED17B68013399
:101470007B607B681B78303B092B05D83B1D1846E9
:10148000FFF795FD78610BE07B681B782A2B07D16D
:101490007B6801337B603B681A1D3A601B687B6187
:1014A0007B69002B01DA00237B6100237B777B685B
:1014B0001B78682B07D07B681B786C2B03D07B686C
:1014C0001B787A2B11D17B681B787B777B68013383
:1014D0007B607B7F682B08D17B681B78682B04D1ED
:1014E00048237B777B6801337B600A23FB777B682B
:1014F0001B78253B532B00F28E8101A252F823F07A
:10150000D11700021718000217180002171800025E
:101510001718000217180002171800021718000207
:1015200017180002171800021718000217180002F7
:1015300017180002171800021718000217180002E7
:1015400017180002171800021718000217180002D7
:1015500017180002171800021718000217180002C7
:1015600017180002171800021718000217180002B7
:1015700017180002171800021718000217180002A7
:101580000B1800020B1800020B18000217180002BB
:101590001718000217180002171800021718000287
:1015A0001718000217180002171800021718000277
:1015B0001718000217180002171800021718000267
:1015C000171800021718000217180002F31700027C
:1015D0001718000217180002171800021718000247
:1015E0001718000217180002171800021718000237
:1015F00017180002E7170002511600020118000236
:101600000B1800020B1800020B180002171800023A
:10161000011800021718000217180002171800021C
:101620001718000217180002ED17000285170002B4
:101630001718000217180002BF1600021718000240
:10164000531800021718000217180002FB170002B7
:10165000BB7F03F01003002B10D109E0BA6A7B6A4C
:101660009A4202D2BB6A20221A70BB6A0133BB6263
:10167000BB69013BBB61BB69002BEFDC3B681A1DFA
:101680003A601B68FB74BA6A7B6A9A4202D2BB6AF0
:10169000FA7C1A70BB6A0133BB6209E0BA6A7B6AE2
:1016A0009A4202D2BB6A20221A70BB6A0133BB6223
:1016B000BB69013BBB61BB69002BEFDC2BE13B68E5
:1016C0001A1D3A601B683B623B6A002B01D1864BB6
:1016D0003B620023FB6202E0FB6A0133FB62FA6AB1
:1016E000BB699A4205D0FB6A3A6A13441B78002B07
:1016F000F2D17B69002B05DDFA6A7B699A4201DD34
:101700007B69FB62BB7F03F01003002B10D109E063
:10171000BA6A7B6A9A4202D2BB6A20221A70BB6AFA
:101720000133BB62BB695A1EBA61FA6A9A42EFDBA7
:1017300000233B6310E0BA6A7B6A9A4203D23B6A99
:101740001A78BB6A1A70BB6A0133BB623B6A013309
:101750003B623B6B01333B633A6BFB6A9A42EADBC9
:1017600009E0BA6A7B6A9A4202D2BB6A20221A70E6
:10177000BB6A0133BB62BB695A1EBA61FA6A9A42FC
:10178000EFDBC8E0BB69B3F1FF3F0CD10823BB61BD
:10179000BB690233BB61BB7F43F02003BB77BB7FD8
:1017A00043F00103BB773B681A1D3A601B6819467A
:1017B0007B7FBA7F03927A690292BA6901920093A1
:1017C00010230A46796AB86AFFF714FCB862A2E0EF
:1017D000BA6A7B6A9A4202D2BB6A25221A70BB6A35
:1017E0000133BB6297E00223FB7733E00823FB77EA
:1017F00030E0BB7F43F04003BB771023FB7729E049
:10180000BB7F43F00203BB7723E03B68073323F041
:10181000070308333B60BA6A7B6A9A4202D2BB6A0A
:1018200025221A70BB6A0133BB627B681B78002BD0
:101830000BD0BA6A7B6A9A4203D27B681A78BB6A79
:101840001A70BB6A0133BB6265E07B68013B7B6059
:1018500061E000BF7B7F4C2B0BD13B68073323F04B
:10186000070303F108023A60D3E9002313467B63C0
:1018700041E07B7F6C2B05D13B681A1D3A601B68E9
:101880007B6338E07B7F482B0ED13B681A1D3A60A2
:101890001B68DBB27B63BB7F03F00203002B2AD003
:1018A0007B6B5BB27B6326E07B7F682B0ED13B6852
:1018B0001A1D3A601B689BB27B63BB7F03F0020377
:1018C000002B18D07B6B1BB27B6314E07B7F7A2BE1
:1018D0000CD13B681A1D3A601B687B63BB7F03F029
:1018E0000203002B07E000BFB8E200023B681A1DAC
:1018F0003A601B687B63F97F7B7FBA7F03927A69CA
:101900000292BA69019200930B467A6B796AB86ABF
:10191000FFF770FBB8627B6801337B607B681B78E4
:10192000002B7FF435ADBB68002B0BD0BA6A7B6A05
:101930009A4203D2BB6A00221A7003E07B6A013B21
:1019400000221A70BA6AFB68D31A18463837BD46A7
:1019500080BD00BF80B500AF00F00CF807F00AFEB4
:1019600000BFFDE780B400AF00BE00BFBD465DF81C
:10197000047B704780B584B000AF544B544A5A6121
:10198000BFF34F8F00BFBFF36F8F00BF4F4B4FF4BC
:101990007002C3F888204D4B4E4A9A60002002F036
:1019A00043FA00F0EFF9012002F03EFA494B1B68C0
:1019B000A3F500533B603B6883F30A8800BF464AA7
:1019C000464BD31A1A46002144480BF043FF444AC1
:1019D000444BD31A1A46444942480CF069F900F0C6
:1019E000C1F800F0DBF8BFF34F8F00BFBFF36F8F7C
:1019F00000BF364B0022C3F85022BFF34F8F00BF09
:101A0000BFF36F8F00BF00BF384A394BD31A9B100A
:101A10007B600023FB6007E0354AFB6852F8233007
:101A20009847FB680133FB60FA687B689A42F3DBF6
:101A300000F0F8F800F0AAFA032000F063FC00239D
:101A4000BB6008E02B4ABB680C33002122F823104E
:101A5000BB680133BB60BB680F2BF3D9032000F0D8
:101A600001FC254BD3F8D833002B03D0224BD3F8FD
:101A7000D8331FE0204B93F81031DBB2002B19D084
:101A8000012000F03FFC1C4B93F81031DBB203F057
:101A9000C003802BF7D1184B002283F81021164B7E
:101AA00093F81031DBB203F0C003002BF7D1012013
:101AB00000F0D8FB022002F0B7F900F0ABFB0020E9
:101AC00000F0C2FA00BF1037BD4680BD00ED00E057
:101AD00001020E0000000002C41100229003002247
:101AE00064030022000000220C17010260030022A0
:101AF00060030022000D404000E00140FFFFFFFFB7
:101B000080B586B000AFF860B9607A607968FA682D
:101B1000BB6841F007C800BFF3E80201E2E8020138
:101B20000FF007C0FA60BB60C7E9040100BF1837B7
:101B3000BD4680BDFFFFFFFF80B584B000AFF860F9
:101B4000C7E90023BA69D7E90001FB6842F005C084
:101B5000E3E802010FF005C0FB6000BF1037BD468F
:101B600080BD00BF80B584B000AF094BFB60094B5E
:101B7000BB60094A074BD31ADB087B607A68B968F7
:101B8000F868FFF7BDFF00BF1037BD4680BD00BF3E
:101B900000000000101701021017010280B588B084
:101BA00002AF114B7B61114B3B61114A0F4BD31AB2
:101BB000DB08FB600F4BBB600F4A0E4BD31ADB08F0
:101BC0007B60FA6839697869FFF79AFF7B68009350
:101BD0004FF000024FF00003B868FFF7ADFF00BF01
:101BE0001837BD4680BD00BF00000020701A0102FA
:101BF000701A0102000000200000002080B400AF35
:101C0000074B01229A80064B9B889BB2002BFAD18E
:101C1000034B01221A8000BFBD465DF8047B70476C
:101C200000C1014080B483B000AF234B93F826304D
:101C3000DBB27B60204B93F82430DBB203F00F0360
:101C4000FB70FB78BB70BB78082B0AD11B4A7B6802
:101C500052F823301A4AA2FB03235B08194A136087
:101C600024E0BB78092B0AD1144A7B6852F8233050
:101C7000134AA2FB03239B08124A136016E0BB78A9
:101C80000A2B0AD10D4A7B6852F823300C4AA2FB7A
:101C90000323DB080B4A136008E0084A7B6852F80C
:101CA0002320BB7822FA03F3064A136000BF0C37E7
:101CB000BD465DF8047B704700E0014064030022EC
:101CC000ABAAAAAAC003002280B500AF144B04221D
:101CD0001A77144B144A1A62124B012283F82420FB
:101CE000104B052283F82620FFF79CFF0121962048
:101CF00000F0B4F90B4B002283F82420094B0A4A68
:101D00001A62FFF78FFF0121962000F0A7F9054B1B
:101D1000052283F82620FFF785FF00BF80BD00BFA6
:101D200000C1014000E001403223123180B500AF14
:101D30000E4B0F4A1A600D4B0E4A5A600B4B4FF474
:101D400000429A60094B0C4ADA60084B4FF400429B
:101D50001A61064B094A5A61044B094ADA61034B7E
:101D6000064A1A62FFF75EFF00BF80BD64030022CF
:101D7000006CDC0200127A00002D310100389C1C3E
:101D8000001C4E0E80B500AF3B4B4AF20352A3F845
:101D9000FA23FFF733FFFFF7C9FF374B162283F80B
:101DA000502A354B092283F8A22000F0B9F8324BB3
:101DB000002283F83220304B93F83C30C3F3C00349
:101DC000DBB2012BF7D12C4B4FF43C521A852A4B36
:101DD00040F23112A3F84C20274B002283F82A202E
:101DE000254B93F83C30C3F34013DBB2012BF7D102
:101DF000FFF76AFF204B012283F830201E4B01229F
:101E000083F852201C4B012283F853201A4A92F87F
:101E1000743043F0400382F87430174B93F87430F9
:101E2000C3F3C013DBB2012BF7D1134B062283F8A7
:101E30006C20114B472283F874200F4B072283F844
:101E400074200D4B93F87430C3F3C013DBB2002B36
:101E5000F7D1052302220949094800F021F805239A
:101E600001220849084800F01BF8034B4FF42542B3
:101E7000A3F8FA2300BF80BD00E0014054E0014018
:101E800055E001405EE001405FE0014080B483B076
:101E900000AF786000BF0C37BD465DF8047B70472B
:101EA00080B485B000AFF860B96011461A460B46A1
:101EB000FB711346BB71FB681B78DBB243F0400338
:101EC000DAB2FB681A70FB681B78DBB2DB09DBB2A5
:101ED00003F00103DBB2012BF5D1BB68FA791A706C
:101EE000BB7963F03F03DAB2FB681A70FB681B78BA
:101EF000DBB223F04003DAB2FB681A70FB681B7890
:101F0000DBB2DB09DBB203F00103DBB2002BF5D15E
:101F100000BF00BF1437BD465DF8047B7047FFFF6C
:101F200080B500AF184B93F8003CDBB2002B07D113
:101F3000154B93F8013CC3F30103DBB2002B1CD01B
:101F4000114B93F8003CDBB2002B0DD10E4B01225C
:101F500083F8002C0121C82000F080F80A4B93F888
:101F6000003CDBB2012BF9D1074B002283F8012C96
:101F7000054B002283F8002C04E04FF47A70FFF741
:101F800085FF00BF00BF80BD00E0014080B582B08A
:101F900000AF2B4B002283F828200121C82000F03D
:101FA0005DF8274B002283F82420254B93F824303A
:101FB000DBB2002BF9D1224A92F8243043F002031D
:101FC00082F824301E4B93F82430C3F34003DBB275
:101FD000002BF7D11A4B002283F82220184B93F8DC
:101FE0002230DBB2002BF9D10023FB7116E014493B
:101FF000FB7903F1200211F8123023F0800301F87D
:1020000012300F4AFB79203312F81330C3F3C01398
:10201000DBB2002BF5D1FB790133FB71FB79022B8D
:10202000E5D9012000F06EF9064B002283F84C2C14
:10203000012000F017F900BF0837BD4680BD00BF82
:102040000020204000E0014080B483B000AF786001
:1020500000BF0C37BD465DF8047B70472DE9B04FDB
:102060008EB000AF78613961002179637969386990
:1020700000FB01F1396335490968F9623448F96AAE
:10208000B0FBF1F1B962396B00200C4605462046E1
:10209000294650EA4F11B0EB040A61EB050B50469C
:1020A000594650EA8F0182468B461AEB0401B9600B
:1020B0004BEB0501F960D7E9020150EACF01C7E90E
:1020C0000801D7E90801012907D23A6ABB6AB2FBC5
:1020D000F3F3FB61FB697B632CE0386BB96AB0FBFF
:1020E000F1F13963396B00200A4603461046194660
:1020F00050EA4F11B0EB020861EB03094046494634
:1021000050EA8F018046894618EB0201396049EB9D
:1021100003037B60D7E9002352EACF03C7E9082312
:10212000D7E90823012B02D23B6A7B6302E04FF020
:10213000FF337B637B6B002B02D0786B00F00CF8D5
:1021400000BF3837BD46BDE8B08F00BFC0030022D6
:1021500000CA9A3BFFFFFFFFA0F101000028FBD15E
:10216000704700BF80B582B000AF0346FB71FB79BA
:10217000074A52F82330002B06D0FB79044A52F864
:102180002330FA791046984700BF0837BD4680BD16
:10219000C403002280B582B000AF1D4B03F5C043DD
:1021A000B3F80031BB801A4B03F5C043B3F82031BC
:1021B0009AB2BB8813407B800023FB710EE07A88C3
:1021C000FB7922FA03F303F00103002B03D0FB7920
:1021D0001846FFF7C7FFFB790133FB71FB790F2B23
:1021E000EDD90B4B03F5C0431A467B88A2F810319A
:1021F000074B03F5C043B3F820319AB27B881340F4
:102200009BB2002BF4D100BF00BF0837BD4680BD94
:102210000060004080B483B000AF00237B6013E017
:102220000E4A7B6832F81330002B0AD00B4A7B68C9
:1022300032F813300A4A19467B6803F5C65342F850
:1022400023107B6801337B607B685F2BE8D900BF7C
:1022500000BF0C37BD465DF8047B704710E70002F5
:102260000060004080B487B000AF0346FB710023DC
:102270007B61EFF31083FB60FB687B6101233B61B3
:102280003B6983F3108800BFFB791A4A32F8133098
:102290009BB2002B09D0FB79164A32F8132092B278
:1022A000013A91B2134A22F81310FB79114A32F81D
:1022B00013309BB2002B11D10F4BB3F8FA339AB203
:1022C0000E4B13439AB2FB790D4931F81330DB43BF
:1022D0009BB2094913409BB2A1F8FA337B69BB60FA
:1022E000BB6883F3108800BF00BF1C37BD465DF894
:1022F000047B70478805002200E0014000A5FFFF35
:10230000E8E2000280B487B000AF0346FB7100230F
:102310007B61EFF31083FB60FB687B6101233B6112
:102320003B6983F3108800BFFB79164A32F81330FB
:102330009BB2002B0FD1144BB3F8FA339AB2FB794E
:10234000124931F8133013439AB20F49104B13431B
:102350009BB2A1F8FA33FB790A4A32F8132092B201
:10236000013291B2074A22F813107B69BB60BB6847
:1023700083F3108800BF00BF1C37BD465DF8047BA7
:10238000704700BF8805002200E00140E8E200023B
:1023900000A5FFFF80B483B000AF0346FB800A496D
:1023A000FB881B0A9BB21A46FB88DBB2120113445E
:1023B00051F82330C3F34003DBB218460C37BD4657
:1023C0005DF8047B704700BF0008404080B485B0D2
:1023D00000AF0023FB60EFF310837B607B68FB6042
:1023E0000123BB60BB6883F3108800BF0D4B1B68E3
:1023F000002B05D10C4B00221A750B4B40221A758D
:10240000084B1B680133074A1360FB683B603B685D
:1024100083F3108800BF00BF1437BD465DF8047B0E
:10242000704700BF04040022000D404080B485B016
:1024300000AF0023FB60EFF310837B607B68FB60E1
:102440000123BB60BB6883F3108800BF0F4B1B6880
:10245000002B04D00D4B1B68013B0C4A13600B4B47
:102460001B68002B05D10A4B00221A75084B8022ED
:102470001A75FB683B603B6883F3108800BF00BFA0
:102480001437BD465DF8047B704700BF040400228A
:10249000000D404080B584B000AF786039607B6843
:1024A000FB60FB68044A1A60386800F0C9F9002331
:1024B00018461037BD4680BD54524F5080B485B089
:1024C00000AF78607B68FB60FB6800221A60002325
:1024D00018461437BD465DF8047B704780B582B05E
:1024E00000AF78603960386800F0AAF90023184618
:1024F0000837BD4680BD80B58AB000AFF8600B4696
:102500007A607B817B893B837B687B610123BB8312
:1025100007F114033B6207F11C03184600F03CFA74
:10252000FFF754FF7B897968184600F0F9F9FFF747
:102530007DFF002318462837BD4680BD80B584B096
:1025400000AFF8600B467A607B817B891846FFF705
:1025500021FF0346DAB27B681A7000231846103751
:10256000BD4680BD80B487B000AFF8600B467A608E
:102570007B817B891B0A9BB2DBB25B0103F1804349
:1025800003F580037B617B695B689AB27B681A8084
:10259000002318461C37BD465DF8047B704780B4A5
:1025A00087B000AFF860084611461A4603467B81A3
:1025B0000B463B811346FB803A89FB881340FB8224
:1025C000B7F90830DB431AB2B7F9063013401BB233
:1025D000BB827B891B0A9BB2DBB25B0103F18043A8
:1025E00003F580033B61BB8A1A04FB8A1A433B69EB
:1025F0009A60002318461C37BD465DF8047B70477F
:1026000080B487B000AF78600B467B8013467B7048
:102610000023FB820023BB827B8823F0FF037B82A5
:102620007B88DBB23B823B8A012202FA03F3FB8107
:102630007B78002B02D1FB89BB8201E0FB89FB8206
:102640007B8A1B0A9BB2DBB25B0103F1804303F57B
:102650008003BB60BB8A1A04FB8A1A43BB689A607A
:10266000002318461C37BD465DF8047B704780B4D4
:102670008BB000AFF860084611461A4603467B81CE
:102680000B463B811346FB807B891B0A9BB2DBB266
:102690005B0103F1804303F580037B627B6A1B6867
:1026A0003B623A89FB8813409BB2FB613B89DA436A
:1026B000FB881340BB613B6A7B617A69FB6913430A
:1026C0007B61BB69DB437A6913407B617B6A7A6912
:1026D0001A60002318462C37BD465DF8047B70470E
:1026E00080B487B000AFF8600B467A607B817B894D
:1026F0001B0A9BB2DBB25B0103F1804303F580034D
:102700007B617B695B68C3F30F439AB27B681A8075
:10271000002318461C37BD465DF8047B704780B423
:1027200087B000AFF8600B467A607B817B891B0A1B
:102730009BB2DBB25B0103F1804303F580037B6155
:102740007B695B68C3F30F437B827B89DBB2012229
:1027500002FA03F33B827A8A3B8A13409BB23A8A9D
:102760009A4203D17B6801221A7002E07B68002242
:102770001A70002318461C37BD465DF8047B70476D
:1027800080B487B000AFF860084611461A46034689
:102790007B810B463B811346FB803A89FB881340C3
:1027A000FB82B7F90830DB431AB2B7F906301340A1
:1027B0001BB2BB827B891B0A9BB2DBB25B0103F1BC
:1027C000804303F580033B61BB8A1A04FB8A1A43EA
:1027D0003B69DA60002318461C37BD465DF8047B70
:1027E000704780B584B000AF78600B467B8013469D
:1027F0007B707B887B817B8923F0FF037B817B89D6
:102800003B810023FB810023BB817B78012B06D118
:102810007B88DBB2012202FA03F3FB8105E07B88AF
:10282000DBB2012202FA03F3BB817B78BA89F98912
:10283000388900F030F8002318461037BD4680BDB7
:1028400080B584B000AF7860786800F0A5F87B6848
:10285000BB60FFF7BBFD0023FB8111E0BB685A683A
:10286000FB89DB0013449888BB685A68FB89DB004E
:1028700013441B68194600F053F8FB890133FB81B0
:10288000BB681B88FA899A42E8D3FFF7CFFD00BFE7
:102890001037BD4680BD90B484B000AF04460846F2
:1028A00011461A462346FB800346BB800B467B80BD
:1028B00013467B700023FB60FB881B0A9BB2DBB2D4
:1028C0005B0103F1804303F58003BB60BB68DB68F9
:1028D000FB607B78012B0DD1BB88FA681343FB604A
:1028E0007B881B046FEA13436FEA0343FA681340C3
:1028F000FB600CE07B881B04FA681343FB60BB8819
:102900006FEA03436FEA1343FA681340FB60BB6846
:10291000FA68DA6000BF1037BD4690BC7047FFFF11
:1029200080B483B000AF03463960FB803B6803F49A
:102930008033002B1CD01749FB881B0A9BB21A4618
:10294000FB88DBB212011A4451F8223023F48033A1
:1029500041F822300F48FB881B0A9BB21946FB88BE
:10296000DBB23A6822F4803209010B4440F823209C
:102970000849FB881B0A9BB21A46FB88DBB212018E
:1029800013443A6841F8232000BF0C37BD465DF878
:10299000047B70470008404080B588B000AF786085
:1029A000594B7B61594B3B610023FB619FE0002346
:1029B000BB6195E07B685A68FB69DB0013449A8829
:1029C0005349BB6931F813309A4240F086807B68E6
:1029D0005A68FB69DB0013441B6803F0F853FB6083
:1029E000FB68B3F1807F03D0FB68B3F1106F39D17E
:1029F0007B6993F84C3CDAB20121BB6901FA03F31D
:102A0000DBB21340DBB2002B13D10120FFF77AFCBD
:102A10007B6993F84C3CDAB20121BB6901FA03F3FC
:102A2000DBB21343DAB27B6983F84C2C0120FFF749
:102A300019FC3B69BA69203213F81230C3F3C01392
:102A4000DBB2002B49D13A69BB6903F1200112F8CE
:102A5000113043F0800302F811300121C820FFF744
:102A6000FDFA3AE07B6993F84C3CDAB20121BB698C
:102A700001FA03F3DBB21340DBB2002B15D00120C7
:102A8000FFF740FC7B6993F84C3CDAB20121BB694B
:102A900001FA03F3DBB2DB43DBB21340DAB27B694A
:102AA00083F84C2C0120FFF7DDFB3B69BA6920322B
:102AB00013F81230C3F3C013DBB2002B0DD03A6908
:102AC000BB6903F1200112F8113023F0800302F8F2
:102AD00011300121C820FFF7C1FABB690133BB6186
:102AE000BB69022B7FF666AFFB690133FB617B6834
:102AF0001B881A46FB699342FFF459AF00BF00BF21
:102B00002037BD4680BD00BF00E0014000202040CE
:102B100024E3000280B483B000AF03463960FB7148
:102B200097F90730002B0ADB3B68DAB20C4997F9BA
:102B300007301201D2B20B4483F800230AE03B684D
:102B4000DAB20849FB7903F00F03043B1201D2B259
:102B50000B441A7600BF0C37BD465DF8047B704706
:102B600000E100E000ED00E080B483B000AFEFF3DF
:102B700003837B607B683B603B88C3F308039BB2A5
:102B8000DBB2103BDBB25BB218460C37BD465DF8DA
:102B9000047B704780B483B000AF03463960FB719B
:102BA00097F9073004493A6841F8232000BF0C37F1
:102BB000BD465DF8047B70470804002280B483B0F2
:102BC00000AF0346FB710C4997F9073003F5C65275
:102BD00051F8223023F4803341F82230064A97F925
:102BE000073003F5C65352F8233000BF0C37BD46FB
:102BF0005DF8047B704700BF0060004080B584B082
:102C000000AF0346FB7197F907301846FFF7D6FF70
:102C1000BFF35F8F00BF97F90730FB60FB6803F0DD
:102C20001F02074997F907305B09012000FA02F2F9
:102C3000603341F8232000BF1037BD4680BD00BF80
:102C400000E100E080B584B000AF0346B9607A606F
:102C5000FB7397F90F30B9681846FFF75BFF97F9D8
:102C60000F3079681846FFF795FF00BF1037BD4653
:102C700080BDFFFF80B485B000AF0346FB7197F9BC
:102C80000730FB60FB6803F01F020749FB685B0924
:102C9000012000FA02F241F8232000BF1437BD469C
:102CA0005DF8047B704700BF00E100E080B582B0B2
:102CB00000AF0346FB7197F907301846FFF79EFFF8
:102CC00097F907301846FFF7D5FF00BF0837BD4614
:102CD00080BDFFFF80B485B000AF0346FB7197F95C
:102CE0000730FB60FB6803F01F020B4997F90730C0
:102CF0005B09012000FA02F2203341F82320BFF3E0
:102D00004F8F00BFBFF36F8F00BF00BF1437BD46AA
:102D10005DF8047B704700BF00E100E080B483B041
:102D200000AF0346FB7197F90730044A52F823308D
:102D300018460C37BD465DF8047B70470804002236
:102D400080B58AB000AF786039607B687B623B6891
:102D50001B7803F5800303F556531B021A467B6A62
:102D60001A627B6A00221A703B681B781A4640F28E
:102D70001F23D34003F00103002B02D07B6A1022F3
:102D80001A707B6A3A68DA613B685A697B6A5A62F0
:102D90003B689A697B6ADA627B6A00229A623B68C6
:102DA000DB693B627A6A9378012161F301039370D6
:102DB0003B685B78002B05D17A6A9378022161F336
:102DC000010393703968786A00F08FF94FF48063DB
:102DD000FB610023BB61EFF31083FB60FB68BB6109
:102DE00001233B613B6983F3108800BF394B5A686C
:102DF0003B681B7819464FF00043CB40DB43354915
:102E000013404B60334B5B6801219620FFF726F996
:102E1000BB697B617B6983F3108800BF7B6A1B6A97
:102E2000FA699A603968786A00F05AF87B6A002279
:102E3000DA607B6A00221A617B6A00225A617B6A2F
:102E400000229A613B6A5A897B6A1A817B6A1B6AF3
:102E5000214A9A667B6A1B6A01221A67FB6943F062
:102E60000103FB617B6ADB6993F905301846FFF7C4
:102E70001DFF7B6ADB6993F90B301846FFF716FFDD
:102E8000FB6943F48033FB617B6ADB6993F90730AC
:102E90001846FFF70BFF7B6ADB6993F90930184688
:102EA000FFF704FFFB6943F01003FB617B6A1B6AB9
:102EB000FA699A607B6A1B6A1B7FC3F30003DBB26B
:102EC000012BF7D17B6A054A5A6000231846283740
:102ED000BD4680BD003020401000079D424943534D
:102EE00080B588B000AF786039603B68DB693B61D2
:102EF0003B695B68FB600023FB614FF48053BB615F
:102F00003B685B781B0203F44073BA691343BB61EF
:102F10003B68DB789B0303F48043BA691343BB61CE
:102F20003B695B78DB039BB2BA691343BB613B69C6
:102F30005B7B5B0503F40013BA691343BB613B6918
:102F40001B781B0603F04073BA691343BB617B68AF
:102F50001B78002B03D0BB6943F48013BB617B68F3
:102F60001B6ABA695A613B691B78022B03D03B6923
:102F70001B78032B0AD1314BFB613B691B78022B79
:102F800009D1FB6943F02003FB6104E0FB681B6887
:102F9000FA691343FB617B681B6AFA691A613B6932
:102FA0001B7B03F003037B617B6943F030037B6190
:102FB0003B689B78002B0BD03B689B78022B02D19F
:102FC0004FF4807301E04FF440737A6913437B61DF
:102FD0003B699B781B0703F080537A6913437B613D
:102FE0007B681B6A7A69DA607B681B6A00229A61D7
:102FF000786800F025F83B699B7B03F00103BB6018
:103000003B69DB7BC3F30403DBB21B0203F4F8531D
:10301000BA681343BB603B691B7CC3F30403DBB298
:103020001B0403F4F813BA681343BB607B681B6A84
:10303000BA681A6300BF2037BD4680BD04FF00FF99
:1030400080B485B000AF78607B681B78002B26D0F9
:103050000023FB607B681B6A144A5A627B68DB6949
:10306000DB69BB607B681B78013BBA68127A13404E
:103070001B0403F47023FA681343FB607B681B781E
:10308000013B1B0603F07063FA681343FB607B6827
:103090001B6A596A7B681B6AFA680A435A6200BF56
:1030A0001437BD465DF8047B704700BF0080800088
:1030B00080B582B000AF78600B46FB701346BB70E2
:1030C00097F902301846FFF705FE97F902301846C7
:1030D000FFF774FDF97897F902307A681846FFF720
:1030E000B1FD00BF0837BD4680BD80B582B000AFDE
:1030F000786039603B68997A3B6893F90B301A46DF
:103100007868FFF7D5FF3B6819793B6893F905307C
:103110001A467868FFF7CCFF3B6899793B6893F9CA
:1031200007301A467868FFF7C3FF3B68197A3B6897
:1031300093F909301A467868FFF7BAFF00BF0837DD
:10314000BD4680BD90B58BB000AFF860B960134646
:10315000FB71FB689B6A7B627B6A002B03D107F1E2
:1031600014037B6205E07B6A07F114040FCB84E84B
:103170000F00FB68DB691B781A467B6A1A607B6A62
:10318000BA689A607B6AFA791A71FB68DA6A7B6AB4
:10319000DA60FB685B6A786A9847FB689B6A002B79
:1031A00007D0FB689B6A1C4607F114030FCB84E829
:1031B0000F0000BF2C37BD4690BD80B586B000AF74
:1031C000FFF7D2FC0346FB7497F913301846FFF75C
:1031D000F5FC97F913301846FFF7A0FDF860FB687F
:1031E000DB691B69002B7FD1FB681B69002B7BD03F
:1031F000FB681B78002B4BD0FB681B6A5B6DC3F32D
:103200000503DBB2BB60BB687B612EE0FB689B788B
:1032100003F00303DBB2022B0AD1FB68DB681B88D7
:103220001946FB681A6A49F2FF130B40536005E028
:10323000FB68DA68FB681B6A12781A71FB681B6905
:10324000FA689278C2F30102D2B29A1AFB681A6144
:10325000FB68DB68FA689278C2F30102D2B21A44C2
:10326000FB68DA607B6901337B61FB681B781A4677
:103270007B69934203D2FB681B69002BC6D1FB68B4
:103280001B6A9A6EFB681B6A42F000529A662BE03A
:10329000FB689B7803F00303DBB2022B0AD1FB68C7
:1032A000DB681B881946FB681A6A49F2FF130B405A
:1032B000536005E0FB68DA68FB681B6A12781A71D4
:1032C000FB681B69FA689278C2F30102D2B29A1ABB
:1032D000FB681A61FB68DB68FA689278C2F3010246
:1032E000D2B21A44FB68DA60FB681B69002B1BD161
:1032F000FB681B6A9B687B607B6843F400137B6000
:103300007B6823F480137B60FB681B6A7A689A6091
:10331000FB680022DA60FB685B6A002B04D0802225
:103320000021F868FFF70EFF00BF1837BD4680BDCB
:1033300080B584B000AFFFF717FC0346FB7397F925
:103340000F301846FFF73AFC97F90F301846FFF791
:10335000E5FCB860BB681B78002B1BD0BB681B6A00
:103360001B6DC3F30523DBB2002B6FD0BB689B78CA
:1033700003F00303DBB2022B06D1BB681B6A1B6898
:10338000C3F308037B6018E0BB681B6A1B78DBB2E1
:103390007B6012E0BB689B7803F00303DBB2022B77
:1033A00006D1BB681B6A1B68C3F308037B6004E09B
:1033B000BB681B6A1B78DBB27B60BB689B69002B18
:1033C0000AD1BB685B6A002B33D07B6804221946A4
:1033D000B868FFF7B7FE2CE0BB685869BB689B78FC
:1033E000C3F30103DBB21A463B1D19460AF060FC29
:1033F000BB685B69BA689278C2F30102D2B21A4420
:10340000BB685A61BB689B69BA689278C2F30102D3
:10341000D2B29A1ABB689A61BB689B69002B08D12B
:10342000BB685B6A002B04D001220021B868FFF75B
:1034300089FEBB681B78002B09D0BB681B6A1B6D1B
:10344000C3F30523DBB2002B84D100E000BFBB68CF
:103450001B78002B07D0BB681B6A9A6EBB681B6A7F
:1034600042F000429A6600BF1037BD4680BD80B56D
:1034700082B000AFFFF778FB0346FB7197F9073086
:103480001846FFF74BFC38603B681B6A9B683A683C
:10349000126A23F4401323F0100393603B685B6AC5
:1034A000002B04D0022200213868FFF74BFE97F969
:1034B00007301846FFF782FB00BF0837BD4680BDC6
:1034C00080B584B000AFFFF74FFB0346BB7297F99E
:1034D0000A301846FFF722FC78600023FB607B6807
:1034E0009B7803F00303DBB2022B06D17B681B6AD7
:1034F0001B68C3F30803FB6004E07B681B6A1B784E
:10350000DBB2FB607B681B6A9B6C3B603B6803F033
:103510008073002B14BF01230023DBB25BB25B017D
:103520005AB23B6803F08053002B14BF01230023E1
:10353000DBB25BB21B015BB213435AB23B6803F0D0
:103540000063002B14BF01230023DBB25BB2DB005E
:103550005BB213435BB2FB72FB7A03F01003002BE8
:103560000BD07B681B6A9B6CC3F3C033DBB2002BB0
:1035700003D1FB7A43F04003FB727B681B6A9A6EAF
:103580007B681B6A42F0C8529A667B685B6A002BB4
:1035900005D0FB7A1A46F9687868FFF7D3FD97F9EA
:1035A0000A301846FFF70AFB00BF1037BD4680BD42
:1035B00080B500AF00F004F80023184680BDFFFF7F
:1035C00080B500AF0B4807F039FB01214FF4817043
:1035D00001F03EFD4FF4FA7009F006FB00214FF4B4
:1035E000817001F035FD4FF4FA7009F0FDFA00BF6B
:1035F000EBE700BFD0E7000280B483B000AF034622
:10360000FB800A49FB881B0A9BB21A46FB88DBB287
:103610001201134451F82330C3F34003DBB21846C0
:103620000C37BD465DF8047B704700BF0008404082
:1036300080B485B000AF03460A46FB8013467B7119
:103640001449FB881B0A9BB21A46FB88DBB21201A5
:10365000134451F82330FB60FB6823F0011323F47B
:103660004043FB607B79FA681343BB600948FB88E1
:103670001B0A9BB21946FB88DBB2BA6842F004020F
:1036800009010B4440F8232000BF1437BD465DF804
:10369000047B70470008404080B485B000AF002331
:1036A000FB60EFF310837B607B68FB600123BB60F2
:1036B000BB6883F3108800BF0D4B1B68002B05D13E
:1036C0000C4B00221A750B4B40221A75084B1B68D5
:1036D0000133074A1360FB683B603B6883F3108843
:1036E00000BF00BF1437BD465DF8047B704700BFC4
:1036F00004040022000D404080B485B000AF0023D8
:10370000FB60EFF310837B607B68FB600123BB6091
:10371000BB6883F3108800BF0F4B1B68002B04D0DD
:103720000D4B1B68013B0C4A13600B4B1B68002BB5
:1037300005D10A4B00221A75084B80221A75FB68C6
:103740003B603B6883F3108800BF00BF1437BD4661
:103750005DF8047B704700BF04040022000D404068
:1037600080B586B000AFF860B9601346FB7131498F
:103770003148FEF78FFE78617B69002B09D02F4816
:1037800007F05CFA2E4807F059FA2E4807F056FA6F
:103790004DE0FB79042B30D0042B48DC002B02D009
:1037A000012B15D043E0BB689BB201221946224889
:1037B000FEF7A1FE78617B69002B33D01F4807F02C
:1037C0003DFA214807F03AFA1E4807F037FA2EE092
:1037D000BB689BB2002219461748FEF78CFE786141
:1037E0007B69002B20D0154807F028FA174807F00E
:1037F00025FA144807F022FA19E0BB689BB2402270
:1038000019460D48FEF777FE78617B69002B0DD0D5
:103810000A4807F013FA0E4807F010FA094807F0B3
:103820000DFA04E000BF02E000BF00E000BF18375F
:10383000BD4680BD04E7000290050022E4E70002D7
:10384000F4E7000208E8000210E8000238E800028D
:103850005CE8000280B586B000AFF860B96013463E
:10386000FB710123FB75FA79FB7D9A4201D000239D
:10387000FB75FFF711FFBB689BB2FA7D1146184636
:10388000FFF7D6FEFFF738FF00BF1837BD4680BDF3
:1038900080B582B000AF786039603B68B3F5316FB6
:1038A00002DA3B68002B02DA6FF0150305E03B6893
:1038B0009BB21846FFF7A0FE034618460837BD46E0
:1038C00080BD80B485B000AFF860B9601346FB716D
:1038D0006FF0FE0318461437BD465DF8047B704751
:1038E00080B485B000AFF860B9603B601346FB71EF
:1038F0006FF0FE0318461437BD465DF8047B704731
:1039000080B483B000AF786039606FF0FE03184672
:103910000C37BD465DF8047B7047FFFF80B582B071
:1039200000AF78607868FDF70DFB0346042B3AD1B1
:103930007B681B78502B03D07B681B78702B32D1AF
:103940007B6801331B782F2B2DD97B6801331B78C3
:10395000392B28D87B6802331B782F2B23D97B681F
:1039600001331B78392B1ED87B6803331B782F2B30
:1039700019D97B6801331B78392B14D87B68013344
:103980001B78303B19027B6802331B78A3F13002AD
:1039900013469B0013445B00CA187B6803331B78F3
:1039A000303B13440AE0074807F048F9064807F09F
:1039B00045F9064807F042F96FF0FE03184608374C
:1039C000BD4680BD84E8000294E8000208E80002D9
:1039D00080B500AF00220349034801F0DFFA034637
:1039E000184680BDD0E80002CCE8000290B484B054
:1039F00000AF104B3C460FCB84E80F000E4B03F199
:103A00004C043B460FCB84E80F000B4B0022A3F87D
:103A10007420094A136D4FF4807161F39923136583
:103A2000054B0022A3F8542000BF1037BD4690BCC0
:103A3000704700BFF8E80002C805002280B584B0D6
:103A400000AF786039607B68002B04D1CE22174923
:103A5000174807F0CBFA3B68002B04D1CF2213495B
:103A6000144807F0C3FA0023FB607B68BB60BB68A7
:103A7000002B04D1D4220D490F4807F0B7FABB68D8
:103A80009B6F5A68BB689B6F9B6819461046FFF78F
:103A900057F9F860FB68002B02D06FF0FE0300E0DE
:103AA000002318461037BD4680BD00BF74E90002F0
:103AB00008E900021CE900022CE9000280B485B08C
:103AC00000AFF860B9607A60002318461437BD462D
:103AD0005DF8047B7047FFFF80B584B000AF78606D
:103AE0000B46FB707B68002B04D1EB221149124876
:103AF00007F07CFA7B68FB60FB68002B04D1EE22A8
:103B00000C490E4807F072FAFB689B6F5B68BB605C
:103B1000BB681B6AFA785A6000BFBB681B6A9B6C63
:103B2000C3F38073DBB2002BF7D0002318461037A5
:103B3000BD4680BD88E9000208E900022CE90002C8
:103B400080B483B000AF7860002318460C37BD46C0
:103B50005DF8047B7047FFFF80B586B000AFF8606A
:103B6000B9607A603B60FB68002B05D140F20D1212
:103B70001149124807F03AFABB68002B05D14FF4FF
:103B800087720D490E4807F031FAFB687B617B694B
:103B9000002B05D14FF4887207490A4807F026FA2E
:103BA0003B681A460621F868FFF788FF7B681846CD
:103BB0001837BD4680BD00BF98E9000208E9000241
:103BC0003CE900022CE9000280B584B000AF7860C7
:103BD00006F03EFF114BFB60FB68002B05D140F265
:103BE000C9120F490F4807F001FA7B681B79042BB3
:103BF0000ED17B689B68DBB2FB7207F10B031A46A0
:103C00000221F86803F05AF80121F86803F0DEF8A1
:103C100006F032FF00BF1037BD4680BDC805002248
:103C2000ACE9000208E9000280B584B000AF0023CF
:103C3000FB6001237B60FFF7D9FE0023BB603BE004
:103C4000BA6813465B0013449B00204A9918204829
:103C5000BA6813465B019B1A9B00034478331960D2
:103C60001B49BA6813465B019B1A9B000B444833FF
:103C7000184A1A60BA6813465B019B1A9B00144AE3
:103C800098181349BA6813465B019B1A9B000B44B2
:103C900078331B6819680023032202F0C1FFF86023
:103CA000FB68002B05D04FF4F8720B490B4807F066
:103CB0009DF9BB680133BB60BB687A689A42BFD884
:103CC000FB6818461037BD4680BD00BF7C0000224F
:103CD000C805002260E90002C0E900024CE90002C8
:103CE00080B483B000AF03463960FB7197F90730A9
:103CF000002B0ADB3B68DAB20C4997F90730120156
:103D0000D2B20B4483F800230AE03B68DAB20849D8
:103D1000FB7903F00F03043B1201D2B20B441A7675
:103D200000BF0C37BD465DF8047B704700E100E042
:103D300000ED00E080B400AFBFF34F8F00BF064B33
:103D4000DB6803F4E0620449044B1343CB60BFF328
:103D50004F8F00BF00BFFDE700ED00E00400FA0553
:103D600080B582B000AF78607B68013BB3F1807FA3
:103D700001D301230FE00A4A7B68013B53600F2106
:103D80004FF0FF30FFF7ACFF054B00229A60044B69
:103D900007221A60002318460837BD4680BD00BFC1
:103DA00010E000E080B582B000AF03463960FB71DF
:103DB000FFF7C0FF80B500AF074B1B68074AA2FBA7
:103DC00003239B091846FFF7CBFFFF214FF0FF307D
:103DD000FFF786FF00BF80BDC0030022D34D6210F5
:103DE00080B500AF06F034FE05F036FB06F044FE69
:103DF00000BF80BD80B500AFFFF7DCFF0749084872
:103E000007F082F8FFF7E4FDFFF70EFF054806F024
:103E1000CBFE05F07BFB00BF80BD00BF00000E2283
:103E2000C8710022ECE9000280B582B000AF034601
:103E3000FB71FB79022B05D1044B5B6819460448E2
:103E4000FEF728FB00BF0837BD4680BD2CE300020B
:103E50009005002280B400AF5C4AB2F8243C23F401
:103E6000E063A2F8243C00BF584B93F8503CDBB20F
:103E7000002BF9D1554AB2F8243C022161F3071313
:103E8000A2F8243C00BF514B93F8503CDBB2002B0E
:103E9000F9D14E4AB2F8243C052161F30303A2F89C
:103EA000243C00BF494B93F8503CDBB2002BF9D1C6
:103EB000464A92F8203C43F0010382F8203C00BFC0
:103EC000424B93F8503CC3F3C003DBB2002BF7D155
:103ED0003E4A92F8003C23F0300382F8003C3B4A13
:103EE00092F8023C43F0010382F8023C374A92F810
:103EF000013C23F0010382F8013C00BF334B93F8EF
:103F0000503CDBB2002BF9D1304B4FF40C72A3F8CC
:103F1000482C00BF2D4B93F8503CC3F30003DBB299
:103F2000002BF7D1294AD2F8443C052161F3124312
:103F3000C2F8443C254AD2F8443C022161F30D33D7
:103F4000C2F8443C214AD2F8443C022161F34B239D
:103F5000C2F8443C1D4AD2F8443C43F48073C2F892
:103F6000443C1A4AD2F8443C032161F30203C2F8EC
:103F7000443C164A92F8403C012161F3010382F867
:103F8000403C124AB2F8143C072161F30F33A2F807
:103F9000143C0E4AB2F8143C4FF46A7161F30B03FF
:103FA000A2F8143C094A92F8163C43F0010382F847
:103FB000163C064A92F8003C43F0010382F8003CAC
:103FC00000BFBD465DF8047B704700BF0030004075
:103FD00080B500AFFFF73EFF0C4806F02FFE102320
:103FE0004FF000724FF0D041094806F027FE094813
:103FF00006F024FE4FF000734FF0D0420649074808
:1040000007F01CF80023184680BD00BFF4E9000249
:1040100008EA000250EA000258EA000244060022C0
:1040200080B584B000AFF860B9601346FB80FB68D0
:10403000002B02D16FF0FE0318E0B86800F01AF808
:104040000346002B02D06FF0FE030FE0FB68BA6856
:104050000921184607F02EFBFB68FA885A83FB6893
:1040600000229A77FB6800229A83002318461037B3
:10407000BD4680BD80B582B000AF78600921786808
:1040800007F090FD034618460837BD4680BDFFFF88
:1040900080B584B000AF78600B467B800023FB6066
:1040A0007B68002B04D1E3224849494806F09EFF73
:1040B0007B68184607F0D4FC0346092B04D0E422A1
:1040C0004249444806F092FF7B685B8B03F0100383
:1040D000002B20D17B689B6A002B15D07B689B6AE4
:1040E00078689847F860FB68002B0DD03A4806F0D6
:1040F000A5FD7A68FB680C21384806F09FFD38481A
:1041000006F09CFDFB685CE07B685B8B43F0100372
:104110009AB27B685A837B685B8B03F00803002BA1
:1041200008D07B689B8B03F00803002B02D06FF054
:104130000F0346E07B689B8B03F00803002B0DD038
:104140007B689B8B1A4640F60F731340798840F6C4
:1041500007720A4042F00802934213D07B68DB6A80
:10416000002B07D07B68DB6A7A881146786898470D
:10417000F86007E07B8823F0F0031B051B0D9AB263
:104180007B689A83FB68002B03D0FB6813F1580F00
:1041900016D17B689B8B43F008039AB27B689A83A5
:1041A0007B689B7F0133DAB27B689A777B689B7F61
:1041B000002B05D14FF48B7204490A4806F016FF14
:1041C000FB6818461037BD4680BD00BFB0EB00024B
:1041D00060EA000270EA000244EB00025CEB0002BD
:1041E00094EB00029CEB000280B584B000AF7860D5
:1041F0000023FB607B68002B05D140F229121E4989
:104200001E4806F0F3FE7B68184607F029FC0346BB
:10421000092B05D04FF495721749194806F0E6FEB0
:104220007B689B7F002B02D16FF0FE031FE07B6851
:104230009B7F013BDAB27B689A777B689B7F002B80
:1042400001D0002313E07B681B6B002B04D07B683C
:104250001B6B78689847F860FB68002B03D0FB68FD
:1042600013F1580F02D17B6800229A83FB6818462D
:104270001037BD4680BD00BFC0EB000260EA0002FF
:1042800070EA000290B585B000AFF860B9607A605E
:104290003B60FB68002B05D140F2571218491948C2
:1042A00006F0A4FEFB68184607F0DAFB0346092B6C
:1042B00005D04FF4AC721249134806F097FEFB6824
:1042C0009B7F002B05D16FF0FE00FCF703FC002361
:1042D00011E0FB685B6B002B08D0FB685C6B3B68F4
:1042E0007A68B968F868A047034604E06FF05700A1
:1042F000FCF7F0FB002318461437BD4690BD00BF05
:10430000D0EB000260EA000270EA000290B585B0CE
:1043100000AFF860B9607A603B60FB68002B05D1A4
:104320004FF4C1721849194806F060FEFB68184640
:1043300007F096FB0346092B05D040F28312124981
:10434000134806F053FEFB689B7F002B05D16FF0EE
:10435000FE00FCF7BFFB002311E0FB689B6B002B0A
:1043600008D0FB689C6B3B687A68B968F868A0471E
:10437000034604E06FF05700FCF7ACFB002318463F
:104380001437BD4690BD00BFE0EB000260EA0002BA
:1043900070EA000280B582B000AF786039607B6857
:1043A000002B05D14FF4E1720C490D4806F01EFEBA
:1043B0007B68184607F054FB0346092B05D040F2F2
:1043C000C3120649074806F011FE7B683A681A6274
:1043D000002318460837BD4680BD00BFF0EB000241
:1043E00060EA000270EA000280B582B000AF786037
:1043F0004FF0FF31786800F0F9F800BF0837BD468C
:1044000080BD80B582B000AF786039600222396823
:10441000786800F01DF8034618460837BD4680BD91
:1044200080B582B000AF78607B68002B04D12A226F
:104430000549064806F0DAFD7B6800221A6000BFD5
:104440000837BD4680BD00BFF4EC00020CEC000252
:1044500080B58AB000AFF860B9607A60FB68002B65
:1044600004D147225849594806F0C0FDBB68002BCB
:1044700029D008F0D5F80346002B08D052495448FB
:1044800006F0DCFB4A225049524806F0AFFD08F026
:104490005BFA0346002B08D14B494F4806F0CEFB90
:1044A0004A2249494B4806F0A1FD06F0F9FA0346B5
:1044B000002B08D04449494806F0C0FB4A22424933
:1044C000444806F093FD00237B6208F03DFAF86152
:1044D000434805F0C3F83862FB681B6803F001032A
:1044E000002B64D1FB681B68012B04D95522364987
:1044F0003C4806F07BFDBB68002B03D16FF07303D3
:104500007B6257E0FB690022DA627968F86908F09B
:104510006DFC78627B6A002B49D1FB6923F00103B3
:10452000BB61FB68BA691A6006F0BAFA0346002B51
:1045300008D02549294806F081FB6A2222492548EE
:1045400006F054FDBB68002B0EDDBB687B61FB6988
:104550004C3307F114020021184609F01DF8FB69DD
:104560004C33184608F050FF396A1D4805F084F8AE
:1045700007F056FE1A4805F071F83862FB681B68B0
:10458000BA699A4202D00023BB60A5E7FB69DB6AE7
:104590007B627B6A002BB8BF5B425B427B627B6ABB
:1045A000002B04D1892208490F4806F01FFDFB6843
:1045B00000221A60396A0A4805F05EF87B6A1846DC
:1045C0002837BD4680BD00BF08ED00020CEC00029C
:1045D00024EC000250EC000254EC00028CEC0002CF
:1045E000BC060022B4EC0002E0EC000280B586B00C
:1045F00000AF786039607B68002B04D1BE221E4971
:104600001E4806F0F3FC1E4805F028F838617B6868
:104610001B6803F00103002B06D03969184805F028
:104620002BF86FF00F0323E07B681B6823F0010376
:10463000FB60FB68002B10D03B68002B02DBFB68A3
:104640003A68DA62F86808F0E1FB78617B69002B70
:1046500006D06FF03C037B6102E06FF03C037B61AE
:104660007B6801221A603969054805F005F87B6905
:1046700018461837BD4680BD24ED00020CEC000240
:10468000BC06002280B483B000AF78607B685B68B2
:10469000C3F35E027B689B68C3F35E039A420FD14B
:1046A0007B681B79C3F30003DAB27B681B7AC3F320
:1046B0000003DBB29A4201D1002302E0012300E0B3
:1046C000022318460C37BD465DF8047B7047FFFF98
:1046D00080B584B000AFF860B9607A60FB68002BE9
:1046E00004D129221C491D4806F080FC7B68002B60
:1046F00004DC2A2218491A4806F078FCFA68536844
:1047000003F001035360FB685B68C3F35E0303F0CF
:104710000103D9B2FA68137961F300031371FA68DF
:10472000936803F001039360FB689B68C3F35E0327
:1047300003F00103D9B2FA68137A61F3000313722C
:10474000FB68BA681A607B6823F00702FB68DA60CE
:1047500000BF1037BD4680BD60ED000244ED000291
:1047600054ED000290B587B000AFF860B9607A6090
:10477000FB68002B04D145224749484806F036FC27
:10478000FB68DB681C46F86800F026FB0346E31A6A
:104790007B617B69002B01D1002378E07A697B681B
:1047A0009A4201D27B697B60FB68DB68FA68926899
:1047B000C2F35E029B1A1A467B6893421BD2FB68C7
:1047C0001B68FA689268C2F35E0213447A68B9689B
:1047D0001846FCF73BFAFB689B68C3F35E031A4676
:1047E0007B68134423F00041FA68936861F35F0328
:1047F00093607B684BE0FB681B68FA689268C2F3C1
:104800005E029818FB68DB68FA689268C2F35E0281
:104810009B1A1A46B968FCF719FAFB681868FB6816
:10482000DB68FA689268C2F35E029B1A1A46BB689C
:104830009918FB68DB68FA689268C2F35E029B1AFB
:104840001A467B689B1A1A46FCF700FAFB681B7A2B
:10485000C3F30003DBB2DB43DBB203F00103D9B2E5
:10486000FA68137A61F300031372FB68DB68FA6875
:104870009268C2F35E029B1A1A467B689B1A23F069
:104880000041FA68936861F35F0393607B681846A0
:104890001C37BD4690BD00BF74ED000244ED000220
:1048A00090B587B000AFF860B9607A60FB68002B04
:1048B00004D17A226349644806F098FBFB68DB6800
:1048C0001C46F86800F088FA0346E31A7B61FB682F
:1048D000DB681A467B6893420AD9FB68DB681A4694
:1048E0007B689B1ABA681344BB60FB68DB687B601B
:1048F000FB68DB68FA689268C2F35E029B1A1A468C
:104900007B68934228D2FB681B68FA689268C2F3FE
:104910005E0213447A68B9681846FCF797F9FB6899
:104920009B68C3F35E031A467B68134423F000417F
:10493000FA68936861F35F0393607A687B699A42CF
:1049400008D9FB689B68C3F35E01FA68536861F39A
:104950005F0353607B6871E0FB681B68FA689268CC
:10496000C2F35E029818FB68DB68FA689268C2F3CB
:104970005E029B1A1A46B968FCF768F9FB6818686A
:10498000FB68DB68FA689268C2F35E029B1A1A46FB
:10499000BB689918FB68DB68FA689268C2F35E022C
:1049A0009B1A1A467B689B1A1A46FCF74FF9FB685C
:1049B0001B7AC3F30003DBB2DB43DBB203F001037A
:1049C000D9B2FA68137A61F300031372FB68DB68EB
:1049D000FA689268C2F35E029B1A1A467B689B1AB9
:1049E00023F00041FA68936861F35F0393607A688B
:1049F0007B699A4221D9FB689B68C3F35E02FB681E
:104A00005B68C3F35E039A420ED8FB681B79C3F35D
:104A10000003DBB2DB43DBB203F00103D9B2FA6877
:104A2000137961F300031371FB689B68C3F35E01A4
:104A3000FA68536861F35F0353607B6818461C375C
:104A4000BD4690BD88ED000244ED000280B586B001
:104A500000AFF860B9607A60FB68002B04D1B72220
:104A60004449454806F0C2FAF86800F0B5F97861A3
:104A70007B69002B01D1002378E07A697B689A4238
:104A800001D27B697B60FB68DB68FA685268C2F31D
:104A90005E029B1A1A467B6893421BD2FB681B6816
:104AA000FA685268C2F35E0213447A681946B8681D
:104AB000FCF7CCF8FB685B68C3F35E031A467B68BF
:104AC000134423F00041FA68536861F35F035360B5
:104AD0007B684BE0FB681B68FA685268C2F35E02B1
:104AE0009918FB68DB68FA685268C2F35E029B1A89
:104AF0001A46B868FCF7AAF8FB68DB68FA685268DF
:104B0000C2F35E029B1A1A46BB689818FB681968C4
:104B1000FB68DB68FA685268C2F35E029B1A1A46A9
:104B20007B689B1A1A46FCF791F8FB681B79C3F364
:104B30000003DBB2DB43DBB203F00103D9B2FA6856
:104B4000137961F300031371FB68DB68FA6852683C
:104B5000C2F35E029B1A1A467B689B1A23F000413F
:104B6000FA68536861F35F0353607B68184618372F
:104B7000BD4680BDA0ED000244ED000280B584B0CA
:104B800000AF786039607B68002B04D1ED222A49A0
:104B90002A4806F02BFA3B6800221A60786800F079
:104BA0001BF9F860FB68002B01D1002340E07B6813
:104BB0001B687A685268C2F35E021A443B681A6046
:104BC0007B68DB687A685268C2F35E029B1A1A46F9
:104BD000FB6893420FD27B685B68C3F35E031A469F
:104BE000FB68134423F000417A68536861F35F0364
:104BF0005360FB681CE07B68DB687A685268C2F32C
:104C00005E029B1AFB607B681B79C3F30003DBB277
:104C1000DB43DBB203F00103D9B27A68137961F3A5
:104C2000000313717A68536803F001035360FB6853
:104C300018461037BD4680BDB4ED000244ED0002B9
:104C400080B584B000AF78600B46FB707B68002BAA
:104C500005D140F25D123449344806F0C7F978684E
:104C6000FFF710FD0346FB737B681B687A68926848
:104C7000C2F35E021344FA781A707B689B68C3F330
:104C80005E031A467B68DB68013B9A422FD17B6842
:104C90001B7AC3F30003DBB2DB43DBB203F0010397
:104CA000D9B27A68137A61F3000313727A68936851
:104CB00003F001039360FB7B012B30D17B681B79F0
:104CC000C3F30003DBB2DB43DBB203F00103D9B271
:104CD0007A68137961F3000313717B689B68C3F3EF
:104CE0005E017A68536861F35F03536017E07B6885
:104CF0009B68C3F35E035A1C22F0004279688B68FC
:104D000062F35F038B60FB7B012B08D17B689B68A0
:104D1000C3F35E017A68536861F35F035360012354
:104D200018461037BD4680BDD0ED000244ED0002AC
:104D300080B582B000AF786039607B68002B05D108
:104D40004FF4C2722249234806F050F9786800F007
:104D500043F80346002B01D1002335E07B681B6834
:104D60007A685268C2F35E0213441A783B681A707C
:104D70007B685B68C3F35E031A467B68DB68013BB4
:104D80009A4214D17B681B79C3F30003DBB2DB4387
:104D9000DBB203F00103D9B27A68137961F300033F
:104DA00013717A68536803F0010353600BE07B686A
:104DB0005B68C3F35E035A1C22F0004279684B68BB
:104DC00062F35F034B60012318460837BD4680BD80
:104DD000ECED000244ED000280B584B000AF7860D5
:104DE0007868FFF74FFC0346002B02D0012B02D05E
:104DF00004E000231BE07B68DB6818E07B689B68AD
:104E0000C3F35E03FB607B685B68C3F35E03BB6058
:104E1000FA68BB689A4203D9FA68BB68D31A06E0FD
:104E20007B68DB681946FA68BB68D31A0B441846DE
:104E30001037BD4680BDFFFF80B582B000AF7860FF
:104E40007B68002B05D140F2BF120E490E4806F0D8
:104E5000CDF87A68137923F0010313717A685368E7
:104E600003F0010353607A68137A23F0010313728D
:104E70007A68936803F00103936000BF0837BD466A
:104E800080BD00BF04EE000244ED000280B586B094
:104E900000AFF860B9607A603B60FB687B617B695A
:104EA000002B04D116220F490F4806F09FF87B68AB
:104EB0003B613B69002B02D03B68082B01D00023EB
:104EC0000CE07B699B6C9B683A6912681146F86834
:104ED00098470346DAB23B691A713B68184618379F
:104EE000BD4680BDD0F0000218EE000280B586B04D
:104EF00000AFF860B9607A603B60FB687B617B69FA
:104F0000002B04D126220E490E4806F06FF87B686C
:104F10003B613B69002B02D03B68082B01D000238A
:104F200009E07B699B6C5B683A6911683A691279A0
:104F3000F86898473B6818461837BD4680BD00BFE3
:104F4000DCF0000218EE000280B586B000AFF86019
:104F5000B9607A60FB687B617B69002B04D13722E2
:104F60000C490D4806F042F87B683B613B69002B19
:104F700002D16FF0FE0309E07B699B6C1B683A6904
:104F800011683A691279F86898470023184618376B
:104F9000BD4680BDE8F0000218EE000280B584B086
:104FA00000AFF860B9607A60154B19221A76144B7D
:104FB00000221A62124B00225A62114B00229A629E
:104FC0000F4B0022DA620E4B00221A630C4B0D4A83
:104FD0005A630B4B0C4A9A63094B0C4ADA63084A32
:104FE000BB689364064A7B6853640322F9680448EB
:104FF000FFF716F8002318461037BD4680BD00BFE6
:10500000C40600228D4E0002ED4E0002494F000200
:1050100080B582B000AF78600B46FB70094B9B6C8B
:10502000002B04D194220849084805F0DFFF054B06
:105030009B6C1B68FA7879680248984700BF08376C
:10504000BD4680BDC4060022F8F0000228EE000232
:1050500080B582B000AF786039600A4B9B6C002B42
:1050600004D19A220849094805F0C0FF054B9B6C02
:105070005B683A68D2B279680248984700BF08373F
:10508000BD4680BDC406002204F1000228EE0002E5
:1050900080B582B000AF7860094B9B6C002B04D1C7
:1050A000A0220849084805F0A1FF054B9B6C9B68AE
:1050B000796803489847034618460837BD4680BDBF
:1050C000C406002214F1000228EE000280B582B06E
:1050D00000AF78600D4B9B6C002B04D1A7220C49CC
:1050E0000C4805F083FF094B9B6C9B69002B02D198
:1050F0006FF0570305E0054B9B6C9B6978689847F8
:10510000034618460837BD4680BD00BFC4060022CE
:1051100020F1000228EE000280B582B000AF786076
:105120007868FFF7D3FF034618460837BD4680BDB1
:1051300080B500AF114805F081FD114805F07EFDF6
:10514000104805F07BFD104805F078FD0F4805F08C
:1051500075FD0F4805F072FD0E4805F06FFD0E4815
:1051600005F06CFD0D4805F069FD0D4805F066FD84
:105170000C48FFF7ABFF00BF80BD00BF40EE000250
:1051800054EE000288EE0002DCEE00020CEF00029A
:105190003CEF000264EF0002A8EF0002D8EF00022B
:1051A000F8EF000204F0000280B584B000AF786030
:1051B00039607B68022B02DCFFF7BAFF1BE03B681B
:1051C00008331B681846FFF7A7FFF860FB68002B41
:1051D00009DA3B6808331B681946084805F02EFDBC
:1051E000FFF7A6FF07E03B6808331B68FA6819461B
:1051F000034805F023FD1037BD4680BD08F00002CE
:1052000024F0000280B584B000AF786039607B681C
:10521000032B02DCFFF78CFF6DE03B6808331B6853
:10522000184603F02DFB0346002B13D13B680833CF
:105230001B681846FFF770FFF860FB68002B10DA58
:105240003B6808331B6819462C4805F0F7FCFFF74C
:105250006FFF50E03B6808331B68184608F062FC9B
:10526000F8603B680C331B6819462548FBF748FE7D
:105270000346002B02D10023BB6036E03B680C33B1
:105280001B6819461F48FBF73BFE0346002B02D163
:105290000123BB6029E03B680C331B6819461A48A0
:1052A000FBF72EFE0346002B02D10223BB601CE05D
:1052B0003B680C331B6819461448FBF721FE034674
:1052C000002B02D10323BB600FE03B680C331B684B
:1052D00019460F48FBF714FE0346002B02D10423A6
:1052E000BB6002E0FFF724FF05E0BB68DBB21946B4
:1052F000F868FFF78DFE1037BD4680BD08F000024C
:1053000030F0000238F0000240F0000250F00002DD
:1053100060F0000280B584B000AF786039607B68CF
:10532000022B02DCFFF704FF34E03B6808331B6804
:10533000184603F0A5FA0346002B13D13B68083347
:105340001B681846FFF7E8FEF860FB68002B10DAD0
:105350003B6808331B681946104805F06FFCFFF7DF
:10536000E7FE17E03B6808331B68184608F0DAFBD5
:10537000F860F868FFF78CFE0346FB72FB7A012B9E
:1053800004D1F968064805F059FC03E0F9680548BE
:1053900005F054FC1037BD4680BD00BF08F0000288
:1053A0006CF000027CF0000280B584B000AF786041
:1053B00039607B68032B02DCFFF7BAFE59E03B68DB
:1053C00008331B68184603F05BFA0346002B13D121
:1053D0003B6808331B681846FFF79EFEF860FB68C1
:1053E000002B10DA3B6808331B681946224805F089
:1053F00025FCFFF79DFE3CE03B6808331B68184620
:1054000008F090FBF8603B680C331B6819461B489A
:10541000FBF776FD0346002B09D03B680C331B6875
:1054200019461748FBF76CFD0346002B02D10123F8
:10543000FB7219E03B680C331B6819461148FBF7F7
:105440005FFD0346002B09D03B680C331B681946EF
:105450000D48FBF755FD0346002B02D10023FB72DC
:1054600002E0FFF765FE04E0FB7A1946F868FFF7F3
:10547000EFFD1037BD4680BD08F000028CF0000241
:1054800094F0000298F000029CF0000280B582B017
:1054900000AF786039607B68022B02DCFFF748FEC2
:1054A0003EE03B6804331B6819461F48FBF728FDA4
:1054B0000346002B04D139687868FFF775FE2FE0AA
:1054C0003B6804331B6819461848FBF719FD03466F
:1054D000002B04D139687868FFF794FE20E03B6820
:1054E00004331B6819461248FBF70AFD0346002BDC
:1054F00004D139687868FFF70DFF11E03B68043389
:105500001B6819460B48FBF7FBFC0346002B04D134
:1055100039687868FFF748FF02E0FFF709FE00BF2F
:105520000837BD4680BD00BFA0F00002A4F0000215
:10553000ACF00002B4F0000280B582B000AF786039
:105540007B68002B04D15D220449054805F04EFD1F
:105550007B68DB6818460837BD4680BD44F400020E
:105560002CF1000280B584B000AF786039607B68B0
:10557000002B05D140F213121649174805F036FDED
:105580007868FFF729FCF860FB68002B01D1002345
:105590001CE07B681B687A685268C2F35E021A449A
:1055A0003B681A607B68DB687A685268C2F35E0207
:1055B0009B1A1A46FB68934201D2FB6806E07B689F
:1055C000DB687A685268C2F35E029B1A184610378D
:1055D000BD4680BDC4F200022CF1000280B584B04B
:1055E00000AF78600B467B807B68002B05D14FF4C1
:1055F00096722749274805F0F9FC7868FFF7ECFB1D
:10560000F860FB68002B3ED07B88FA689A4201D292
:10561000FB687B807B68DB687A685268C2F35E0255
:105620009A1A7B889A420EDD7B685B68C3F35E033F
:105630001A467B88134423F000417A68536861F36B
:105640005F03536020E07B681B79C3F30003DBB288
:10565000DB43DBB203F00103D9B27A68137961F35B
:10566000000313717A887B68DB6879684968C1F345
:105670005E015B1AD31A23F000417A68536861F324
:105680005F03536000E000BF1037BD4680BD00BF20
:10569000E0F200022CF1000290B585B000AF786016
:1056A0000B467B807B68002B05D14FF4A5724A49DD
:1056B0004A4805F09BFC7B68DB689CB27868FFF782
:1056C0008BFB03469BB2E31AFB817A887B68DB681D
:1056D0009A420EDD7B68DB687B80414805F0AEFABC
:1056E0007B68DB6819463F4805F0A8FA3E4805F09C
:1056F000A5FA7B68DB687A689268C2F35E029A1A40
:105700007B889A421BDD7B689B68C3F35E031A4665
:105710007B88134423F000417A68936861F35F0348
:1057200093607A88FB899A424FD97B689B68C3F360
:105730005E017A68536861F35F03536045E07B68FC
:105740001B7AC3F30003DBB2DB43DBB203F00103DC
:10575000D9B27A68137A61F3000313727A887B688E
:10576000DB6879688968C1F35E015B1AD31A23F09C
:1057700000417A68936861F35F0393607A88FB89DC
:105780009A4224D97B689B68C3F35E027B685B689E
:10579000C3F35E039A420ED87B681B79C3F3000300
:1057A000DBB2DB43DBB203F00103D9B27A681379D1
:1057B00061F3000313717B689B68C3F35E017A6831
:1057C000536861F35F03536001E000BF00E000BF76
:1057D0001437BD4690BD00BFFCF200022CF1000260
:1057E0003CF1000250F1000278F1000280B588B06F
:1057F00000AFF860B9607A603B60FB68002B02D0B4
:105800007B68002B05D14FF4C2721D491D4805F07D
:10581000EDFB3B68002B01D100232CE0FB68BB6152
:105820007B68FB613B687B611BE0BB699B6CDB6851
:10583000B869984738613B69002B16DB3B69DAB2DF
:10584000FB691A70FB690133FB613B68013B3B60FC
:10585000BB699B8B03F04003002B02D03B690A2BF2
:1058600005D03B68002BE0D102E000BF00E000BFA4
:105870007A693B68D31A18462037BD4680BD00BF01
:105880001CF3000280F1000280B588B000AFF86020
:10589000B9607A603B603B68002B01D100233CE09B
:1058A000FB68002B02D07B68002B05D14FF4DA7225
:1058B0001C491D4805F09AFBFB68BB617B68FB61D6
:1058C0003B687B6121E0BB699B8B03F04003002BAD
:1058D00009D0FB691B780A2B05D1BB699B6C9B68BF
:1058E0000D21B8699847BB699B6C9B68FA6912786F
:1058F0001146B869984738613B69002B09DBFB69A1
:105900000133FB613B68013B3B603B68002BDAD114
:1059100000E000BF7A693B68D31A18462037BD46BD
:1059200080BD00BF2CF3000280F1000280B58EB074
:1059300000AFF860B9607A603B6000237B633B682E
:10594000002B01D10023CBE0FB68002B02D07B6849
:10595000002B05D140F2E5126349644805F046FB8F
:10596000FB68FB62FB6ADB6DBB62FB689B8B03F42D
:105970008053002B00F09A80FB6A1B6DC3F38F23CA
:105980009BB25B089BB23B62BB6A28331846FAF7AE
:1059900084FCF861FB693B6303F03EFDB8613B6B3F
:1059A000002B2FD0FB6A6433184603F057FE786251
:1059B000BB6A1846FFF710FA78613A687B6BD31A16
:1059C0007A699A4218D27A6B7B6913443A68D31A7F
:1059D0003A6A9A4203D8BB6A3A6A5A6206E07A6B1C
:1059E0007B6913443A68D21ABB6A5A62BB6A203395
:1059F00000211846FEF705FDFB6A6433796A1846F4
:105A000003F03AFEFB6A6433184603F027FE78621F
:105A1000B86A7A687B6BD1183A687B6BD31A1A46DE
:105A2000FFF714F802467B6B13447B63FB6A643315
:105A3000796A184603F020FE7A6B3B689A424ED092
:105A40003B6B002B4BD0BB6A2033396B1846FEF7FB
:105A5000D8FC3B6BB3F1FF3FA1D0B86903F0E6FC83
:105A60003861FB693A699A421BD3FB6A6433184672
:105A700003F0F4FD7862B86A7A687B6BD1183A68F3
:105A80007B6BD31A1A46FEF7E1FF02467B6B134489
:105A90007B63FB6A6433796A184603F0EDFD7B6B28
:105AA0001EE0FA693B69D31A3B6378E7FB689B8B7E
:105AB00003F40053002B12D0FB6A6433184603F042
:105AC000CDFD7862BB6A3A6879681846FEF7BEFF7A
:105AD0007863FB6A6433796A184603F0CDFD7B6B0B
