:020000040200F8
:10000000A872002201CA0002C5C20002FF04000259
:1000100011CA000211CA000211CA000211CA00026C
:1000200000000000000000000000000011CA0002F3
:1000300011CA00020000000037040002A5440002BB
:100040005DE10002E7DF00029BE20002EDE2000258
:100050000DCB0002FDCC0002A5D60002FDD60002A9
:1000600055D70002EDD7000255D80002ADD80002E6
:1000700005CC00025DE10002E7DF00029BE2000226
:10008000EDE200020000000000000000000000009F
:100090000000000000000000000000000000000060
:1000A0000000000000000000000000000000000050
:1000B0000000000000000000000000000000000040
:1000C0000000000000000000000000000000000030
:1000D0000000000000000000000000000000000020
:1000E0000000000000000000000000000000000010
:1000F0000000000000000000000000000000000000
:1001000000000000000000000000000000000000EF
:1001100000000000000000000000000000000000DF
:1001200000000000000000000000000000000000CF
:1001300000000000000000000000000000000000BF
:1001400000000000000000000000000000000000AF
:10015000000000000000000000000000000000009F
:10016000000000000000000000000000000000008F
:10017000000000000000000000000000000000007F
:10018000000000000000000000000000000000006F
:10019000000000000000000000000000000000005F
:1001A000000000000000000000000000000000004F
:1001B000000000000000000000000000000000003F
:1001C000FFFFFFFFFFFFFFFFFFFFFFFFFFFFFFFF3F
:1001D000FFFFFFFFFFFFFFFFFFFFFFFFFFFFFFFF2F
:1001E000FFFFFFFFFFFFFFFFFFFFFFFFFFFFFFFF1F
:1001F000FFFFFFFFFFFFFFFFFFFFFFFFFFFFFFFF0F
:100200000348044B834202D0034B03B118477047A5
:100210007C0300227C03002200000000064B0749FB
:10022000C91A891048BF0131491003D0044B0BB1E2
:1002300001481847704700BF7C0300227C0300225E
:100240000000000010B5064C237843B9FFF7D8FF33
:10025000044B13B10448AFF300800123237010BD99
:10026000A803002200000000E023010208B5044BAF
:100270001BB104490448AFF30080BDE80840CDE756
:1002800000000000AC030022E023010280B489B02A
:1002900000AF78607B683B613B6953E8003FFB60DF
:1002A000FB68FB61FB69BB607B68BB61BA68B969CD
:1002B00041E800237B617B69002BEBD1FB69184689
:1002C0002437BD465DF8047B704780B489B000AF29
:1002D000786039607B687B617B6953E8003F3B61F4
:1002E0003B68FB607B68FB61FA68F96941E80023C1
:1002F000BB61BB69002BEDD100BF00BF2437BD46F9
:100300005DF8047B704780B489B000AF78603960D5
:100310007B683B613B6953E8003FFB60FB68FB6126
:10032000FA693B681344BB607B68BB61BA68B96912
:1003300041E800237B617B69002BE9D1FB6918460A
:100340002437BD465DF8047B704780B489B000AFA8
:10035000786039607B683B613B6953E8003FFB6034
:10036000FB68FB61FA693B68D31ABB607B68BB61C1
:10037000BA68B96941E800237B617B69002BE9D148
:10038000FB6918462437BD465DF8047B704780B48E
:1003900089B000AF78607B687B617B6953E8003F80
:1003A0003B610023FB607B68FB61FA68F96941E807
:1003B0000023BB61BB69002BEDD100BF00BF243718
:1003C000BD465DF8047B704780B489B000AF7860AB
:1003D0007B683B613B6953E8003FFB60FB68FB6166
:1003E0000123BB607B68BB61BA68B96941E800233F
:1003F0007B617B69002BEBD1FB6918462437BD4636
:100400005DF8047B7047FFFFEFF3108072B6704712
:1004100080F310887047484A1368012B04D04FF0CE
:1004200001031360454A1060454A116045484FF08A
:10043000805101607047EFF3108272B63E48016848
:1004400079B34FF0000101603C48016891B1EFF3CE
:1004500009811EF0100F08BF21ED108B21E9F00F6C
:100460004FF000041EF0100F08BF012441F8044DA6
:100470000068016000B500F0D5FA5DF804EB304982
:100480000968096808C9B1E8F00F002B18BFB1EC82
:10049000108B81F309884EF0100E002B18BF2EF040
:1004A000100E82F310884EF0040E70472449086045
:1004B000EFF3148222F0040282F314881F494FF0F4
:1004C000000008601C494FF0010008601E481F49E9
:1004D000D0F8002041EA020101601A484FF0805133
:1004E00001601B480068006800BF80F3088861B69F
:1004F00062B6BFF34F8FBFF36F8F704700BFEFF34C
:1005000008801EF0040F01D0EFF3098020E9F00FFE
:1005100040F804ED40F804ED1EF0040F02D080F323
:10052000098801E080F3088800B500F0B9F95DF8AA
:1005300004EB4EF0040E7047CC030022C4030022EB
:10054000C803002204ED00E020ED00E00000FFFF02
:1005500008ED00E080B489B000AFF860B9607A605F
:100560003B607B680433BB61BB6923F00703BB615D
:10057000BB69443BBB61BB697B610023FB6108E055
:10058000FB699B007A691344154A1A60FB690133C1
:10059000FB61FB69102BF3D9BA687B695A627B69EE
:1005A00000229A627B690022DA627B6900221A6368
:1005B0007B6900225A633A687B699A63FA687B69AF
:1005C000DA637B694FF080721A647B6900221A60DB
:1005D000BB6918462437BD465DF8047B704700BFF1
:1005E000EFBEADDE80B500AF254807F001FE254B1C
:1005F0001B889BB21946244807F0FAFD214B1B8843
:100600009BB203F00103002B02D0204807F0F0FD5D
:100610001C4B1B889BB203F00203002B02D01C482A
:1006200007F0E6FD174B1B889BB203F00403002B79
:1006300002D0184807F0DCFD124B1B889BB203F078
:100640000803002B02D0144807F0D2FD0D4B1B8885
:100650009BB203F48073002B02D0104807F0C8FD52
:10066000084B1B889BB203F40073002B02D00C488C
:1006700007F0BEFD0B4807F0BBFD00BF80BD00BF0B
:1006800038EB00022AED00E048EB000260EB0002CC
:100690006CEB000278EB000280EB000288EB0002BA
:1006A00094EB0002A0EB000280B500AF264807F0F3
:1006B0009FFD264B1B78DBB21946254807F098FDB5
:1006C000224B1B78DBB203F00103002B02D0214840
:1006D00007F08EFD1D4B1B78DBB203F00203002BED
:1006E00002D01D4807F084FD184B1B78DBB203F0E5
:1006F0000403002B02D0194807F07AFD134B1B7836
:10070000DBB203F00803002B02D0154807F070FDA0
:100710000E4B1B78DBB203F01003002B02D0114804
:1007200007F066FD094B1B78DBB25BB2002B06DAE3
:100730000D4B1B6819460D4807F05AFD02E00C48A6
:1007400007F056FD00BF80BDA4EB000229ED00E0DC
:10075000B0EB0002C8EB0002D4EB0002E0EB0002B9
:10076000F0EB0002FCEB000238ED00E004EC0002CC
:10077000A0EB000280B500AF214807F039FD214B06
:100780001B78DBB21946204807F032FD1D4B1B7861
:10079000DBB203F00103002B02D01C4807F028FD58
:1007A000184B1B78DBB203F00203002B02D0184871
:1007B00007F01EFD134B1B78DBB203F00803002B80
:1007C00002D0144807F014FD0E4B1B78DBB203F087
:1007D0001003002B02D0104807F00AFD094B1B78CC
:1007E000DBB25BB2002B06DA0C4B1B6819460C48D7
:1007F00007F0FEFC02E00B4807F0FAFC00BF80BDEA
:1008000014EC000228ED00E028EC000240EC0002AD
:100810004CEC000258EC000264EC000234ED00E005
:1008200070EC0002A0EB000280B500AF164B1B6815
:1008300003F00203002B02D0144807F0D9FC124B3E
:100840001B6803F08043002B14D0114B1B78DBB2E4
:10085000002B01D0FFF728FF0E4B1B78DBB2002BDB
:1008600001D0FFF787FF0C4B1B889BB2002B01D0F8
:10087000FFF7B8FE044B1B68002B02DA074807F0AD
:10088000B7FC00BF80BD00BF2CED00E080EC000293
:1008900029ED00E028ED00E02AED00E098EC0002F0
:1008A00080B586B000AF78607B6828337B617B6859
:1008B00004333B61474B1B68002B07D0454B1B683B
:1008C00078699847F860FB68002B7FD03B691B6C08
:1008D0001946414807F08CFC3B695B6A19463F4862
:1008E00007F086FC3B699B6A19463D4807F080FC8F
:1008F0003B69DB6A19463B4807F07AFC3B691B6B96
:100900001946394807F074FC3B695B68194637485B
:1009100007F06EFC3B699B681946354807F068FC98
:100920003B69DB681946334807F062FC3B691B6989
:100930001946314807F05CFC3B695B6919462F4852
:1009400007F056FC3B699B6919462D4807F050FC9F
:100950003B69DB6919462B4807F04AFC3B691B6A77
:100960001946294807F044FC3B695B6B1946274848
:1009700007F03EFC3B699B6B1946254807F038FCA5
:100980003B69DB6B1946234807F032FC7B681B6828
:1009900003F00403002B09D009F0B6FA0346194608
:1009A0001D4807F025FC05F097F802E01B4807F00A
:1009B0001FFC7B681B6803F01003002B02D1184852
:1009C00007F016FCFFF730FF00BFFDE700BF183748
:1009D000BD4680BDD0030022A8EC0002B8EC0002A6
:1009E000C8EC0002D8EC0002E8EC0002F8EC0002CF
:1009F00008ED000218ED000228ED000238ED0002BB
:100A000048ED000258ED000268ED000278ED0002AA
:100A100088ED000298ED0002A8ED0002C8ED00028A
:100A2000E4ED000280B582B000AF09F06DFA034634
:100A30005B6A7B607B6883F30B8800BF0837BD4629
:100A400080BD80B483B000AF78607B6893FAA3F375
:100A5000B3FA83F37A68002A01D14FF0FF330133F0
:100A600018460C37BD465DF8047B704780B584B0EE
:100A700000AFF860B9601346FB80FB68002B02D121
:100A80006FF0FE0318E0B86800F01AF80346002B78
:100A900002D06FF0FE030FE0FB68BA680921184628
:100AA00008F0E8F8FB68FA885A83FB6800229A7716
:100AB000FB6800229A83002318461037BD4680BD8C
:100AC00080B582B000AF78600921786808F04AFBF1
:100AD000034618460837BD4680BDFFFF80B584B089
:100AE00000AF78600B467B800023FB607B68002BA7
:100AF00004D1E3224849494807F058FD7B6818466D
:100B000008F08EFA0346092B04D0E42242494448F7
:100B100007F04CFD7B685B8B03F01003002B20D1AA
:100B20007B689B6A002B15D07B689B6A7868984726
:100B3000F860FB68002B0DD03A4807F059FB7A6843
:100B4000FB680C21384807F053FB384807F050FB8E
:100B5000FB685CE07B685B8B43F010039AB27B68B8
:100B60005A837B685B8B03F00803002B08D07B68FB
:100B70009B8B03F00803002B02D06FF00F0346E0BD
:100B80007B689B8B03F00803002B0DD07B689B8B4D
:100B90001A4640F60F731340798840F607720A40F0
:100BA00042F00802934213D07B68DB6A002B07D027
:100BB0007B68DB6A7A88114678689847F86007E0B6
:100BC0007B8823F0F0031B051B0D9AB27B689A8388
:100BD000FB68002B03D0FB6813F1580F16D17B681C
:100BE0009B8B43F008039AB27B689A837B689B7F58
:100BF0000133DAB27B689A777B689B7F002B05D143
:100C00004FF48B7204490A4807F0D0FCFB68184681
:100C10001037BD4680BD00BF58EF000208EE00024D
:100C200018EE0002ECEE000204EF00023CEF0002BE
:100C300044EF000280B584B000AF78600023FB6011
:100C40007B68002B05D140F229121E491E4807F08F
:100C5000ADFC7B68184608F0E3F90346092B05D084
:100C60004FF495721749194807F0A0FC7B689B7FE9
:100C7000002B02D16FF0FE031FE07B689B7F013BDE
:100C8000DAB27B689A777B689B7F002B01D00023C8
:100C900013E07B681B6B002B04D07B681B6B7868B0
:100CA0009847F860FB68002B03D0FB6813F1580FDE
:100CB00002D17B6800229A83FB6818461037BD4634
:100CC00080BD00BF68EF000208EE000218EE0002CF
:100CD00090B585B000AFF860B9607A603B60FB68A2
:100CE000002B05D140F257121849194807F05EFC55
:100CF000FB68184608F094F90346092B05D04FF419
:100D0000AC721249134807F051FCFB689B7F002B23
:100D100005D16FF0FE000AF0C9F8002311E0FB686E
:100D20005B6B002B08D0FB685C6B3B687A68B9682A
:100D3000F868A047034604E06FF057000AF0B6F8E1
:100D4000002318461437BD4690BD00BF78EF00025F
:100D500008EE000218EE000290B585B000AFF86012
:100D6000B9607A603B60FB68002B05D14FF4C1721B
:100D70001849194807F01AFCFB68184608F050F9A2
:100D80000346092B05D040F283121249134807F09D
:100D90000DFCFB689B7F002B05D16FF0FE000AF075
:100DA00085F8002311E0FB689B6B002B08D0FB68E3
:100DB0009C6B3B687A68B968F868A047034604E012
:100DC0006FF057000AF072F8002318461437BD463A
:100DD00090BD00BF88EF000208EE000218EE00028E
:100DE00080B582B000AF786039607B68002B05D198
:100DF0004FF4E1720C490D4807F0D8FB7B681846A8
:100E000008F00EF90346092B05D040F2C31206493B
:100E1000074807F0CBFB7B683A681A620023184644
:100E20000837BD4680BD00BF98EF000208EE000203
:100E300018EE000280B582B000AF78604FF0FF314D
:100E4000786800F0F9F800BF0837BD4680BD80B56E
:100E500082B000AF7860396002223968786800F0AB
:100E60001DF8034618460837BD4680BD80B582B0E0
:100E700000AF78607B68002B04D12A220549064820
:100E800007F094FB7B6800221A6000BF0837BD465C
:100E900080BD00BF9CF00002B4EF000280B58AB0B4
:100EA00000AFF860B9607A60FB68002B04D147227C
:100EB0005849594807F07AFBBB68002B29D008F045
:100EC0008FFE0346002B08D05249544807F090F992
:100ED0004A225049524807F069FB09F015F80346C9
:100EE000002B08D14B494F4807F082F94A22494963
:100EF0004B4807F05BFB07F0A1F80346002B08D036
:100F00004449494807F074F94A224249444807F0E5
:100F10004DFB00237B6208F0F7FFF861434805F0C2
:100F20006BFE3862FB681B6803F00103002B64D181
:100F3000FB681B68012B04D9552236493C4807F051
:100F400035FBBB68002B03D16FF073037B6257E066
:100F5000FB690022DA627968F86909F03DFA786283
:100F60007B6A002B49D1FB6923F00103BB61FB685D
:100F7000BA691A6007F062F80346002B08D02549C9
:100F8000294807F035F96A222249254807F00EFB67
:100F9000BB68002B0EDDBB687B61FB694C3307F13E
:100FA00014020021184609F0EDFDFB694C33184688
:100FB00009F020FD396A1D4805F02CFE08F010FCF0
:100FC0001A4805F019FE3862FB681B68BA699A4234
:100FD00002D00023BB60A5E7FB69DB6A7B627B6A0A
:100FE000002BB8BF5B425B427B627B6A002B04D163
:100FF000892208490F4807F0D9FAFB6800221A60D5
:10100000396A0A4805F006FE7B6A18462837BD464D
:1010100080BD00BFB0F00002B4EF0002CCEF0002D0
:10102000F8EF0002FCEF000234F00002D4030022CB
:101030005CF0000288F0000280B586B000AF7860F6
:1010400039607B68002B04D1BE221E491E4807F080
:10105000ADFA1E4805F0D0FD38617B681B6803F0CF
:101060000103002B06D03969184805F0D3FD6FF055
:101070000F0323E07B681B6823F00103FB60FB6820
:10108000002B10D03B68002B02DBFB683A68DA6269
:10109000F86809F0B1F978617B69002B06D06FF030
:1010A0003C037B6102E06FF03C037B617B680122C3
:1010B0001A603969054805F0ADFD7B691846183797
:1010C000BD4680BDCCF00002B4EF0002D403002284
:1010D00080B483B000AF78607B685B68C3F35E0266
:1010E0007B689B68C3F35E039A420FD17B681B79D0
:1010F000C3F30003DAB27B681B7AC3F30003DBB2ED
:101100009A4201D1002302E0012300E002231846A5
:101110000C37BD465DF8047B7047FFFF80B584B097
:1011200000AFF860B9607A60FB68002B04D1292217
:101130001C491D4807F03AFA7B68002B04DC2A2280
:1011400018491A4807F032FAFA68536803F00103A5
:101150005360FB685B68C3F35E0303F00103D9B21D
:10116000FA68137961F300031371FA68936803F066
:1011700001039360FB689B68C3F35E0303F0010304
:10118000D9B2FA68137A61F300031372FB68BA6884
:101190001A607B6823F00702FB68DA6000BF103733
:1011A000BD4680BD08F10002ECF00002FCF0000238
:1011B00090B587B000AFF860B9607A60FB68002B2B
:1011C00004D145224749484807F0F0F9FB68DB683D
:1011D0001C46F86800F026FB0346E31A7B617B6936
:1011E000002B01D1002378E07A697B689A4201D212
:1011F0007B697B60FB68DB68FA689268C2F35E0219
:101200009B1A1A467B6893421BD2FB681B68FA68DC
:101210009268C2F35E0213447A68B968184609F00E
:1012200001FFFB689B68C3F35E031A467B681344A7
:1012300023F00041FA68936861F35F0393607B6871
:101240004BE0FB681B68FA689268C2F35E0298186C
:10125000FB68DB68FA689268C2F35E029B1A1A4662
:10126000B96809F0DFFEFB681868FB68DB68FA689C
:101270009268C2F35E029B1A1A46BB689918FB6813
:10128000DB68FA689268C2F35E029B1A1A467B68B2
:101290009B1A1A4609F0C6FEFB681B7AC3F30003CB
:1012A000DBB2DB43DBB203F00103D9B2FA68137A95
:1012B00061F300031372FB68DB68FA689268C2F39B
:1012C0005E029B1A1A467B689B1A23F00041FA685B
:1012D000936861F35F0393607B6818461C37BD46D3
:1012E00090BD00BF1CF10002ECF0000290B587B089
:1012F00000AFF860B9607A60FB68002B04D17A22F5
:101300006349644807F052F9FB68DB681C46F868DB
:1013100000F088FA0346E31A7B61FB68DB681A4633
:101320007B6893420AD9FB68DB681A467B689B1A84
:10133000BA681344BB60FB68DB687B60FB68DB68F2
:10134000FA689268C2F35E029B1A1A467B6893425F
:1013500028D2FB681B68FA689268C2F35E021344E5
:101360007A68B968184609F05DFEFB689B68C3F3AC
:101370005E031A467B68134423F00041FA689368C1
:1013800061F35F0393607A687B699A4208D9FB68CE
:101390009B68C3F35E01FA68536861F35F035360AF
:1013A0007B6871E0FB681B68FA689268C2F35E02B2
:1013B0009818FB68DB68FA689268C2F35E029B1AB1
:1013C0001A46B96809F02EFEFB681868FB68DB68EE
:1013D000FA689268C2F35E029B1A1A46BB689918B3
:1013E000FB68DB68FA689268C2F35E029B1A1A46D1
:1013F0007B689B1A1A4609F015FEFB681B7AC3F33B
:101400000003DBB2DB43DBB203F00103D9B2FA68BD
:10141000137A61F300031372FB68DB68FA68926861
:10142000C2F35E029B1A1A467B689B1A23F00041A6
:10143000FA68936861F35F0393607A687B699A4204
:1014400021D9FB689B68C3F35E02FB685B68C3F34A
:101450005E039A420ED8FB681B79C3F30003DBB22C
:10146000DB43DBB203F00103D9B2FA68137961F30D
:1014700000031371FB689B68C3F35E01FA6853684D
:1014800061F35F0353607B6818461C37BD4690BD0F
:1014900030F10002ECF0000280B586B000AFF860D9
:1014A000B9607A60FB68002B04D1B72244494548F3
:1014B00007F07CF8F86800F0B5F978617B69002BDB
:1014C00001D1002378E07A697B689A4201D27B6976
:1014D0007B60FB68DB68FA685268C2F35E029B1AA5
:1014E0001A467B6893421BD2FB681B68FA685268F5
:1014F000C2F35E0213447A681946B86809F092FD97
:10150000FB685B68C3F35E031A467B68134423F0F1
:101510000041FA68536861F35F0353607B684BE0F6
:10152000FB681B68FA685268C2F35E029918FB6890
:10153000DB68FA685268C2F35E029B1A1A46B86802
:1015400009F070FDFB68DB68FA685268C2F35E025E
:101550009B1A1A46BB689818FB681968FB68DB6819
:10156000FA685268C2F35E029B1A1A467B689B1A9D
:101570001A4609F057FDFB681B79C3F30003DBB281
:10158000DB43DBB203F00103D9B2FA68137961F3EC
:1015900000031371FB68DB68FA685268C2F35E02ED
:1015A0009B1A1A467B689B1A23F00041FA6853681D
:1015B00061F35F0353607B6818461837BD4680BDF2
:1015C00048F10002ECF0000280B584B000AF786012
:1015D00039607B68002B04D1ED222A492A4806F0A5
:1015E000E5FF3B6800221A60786800F01BF9F8609C
:1015F000FB68002B01D1002340E07B681B687A6800
:101600005268C2F35E021A443B681A607B68DB686A
:101610007A685268C2F35E029B1A1A46FB689342CC
:101620000FD27B685B68C3F35E031A46FB68134402
:1016300023F000417A68536861F35F035360FB68ED
:101640001CE07B68DB687A685268C2F35E029B1A12
:10165000FB607B681B79C3F30003DBB2DB43DBB2C7
:1016600003F00103D9B27A68137961F300031371AF
:101670007A68536803F001035360FB68184610371B
:10168000BD4680BD5CF10002ECF0000280B584B084
:1016900000AF78600B46FB707B68002B05D140F2F1
:1016A0005D123449344806F081FF7868FFF710FD79
:1016B0000346FB737B681B687A689268C2F35E021C
:1016C0001344FA781A707B689B68C3F35E031A466A
:1016D0007B68DB68013B9A422FD17B681B7AC3F39E
:1016E0000003DBB2DB43DBB203F00103D9B27A685B
:1016F000137A61F3000313727A68936803F00103AD
:101700009360FB7B012B30D17B681B79C3F3000313
:10171000DBB2DB43DBB203F00103D9B27A681379A1
:1017200061F3000313717B689B68C3F35E017A6801
:10173000536861F35F03536017E07B689B68C3F3F2
:101740005E035A1C22F0004279688B6862F35F03E3
:101750008B60FB7B012B08D17B689B68C3F35E0128
:101760007A68536861F35F035360012318461037AA
:10177000BD4680BD78F10002ECF0000280B582B079
:1017800000AF786039607B68002B05D14FF4C272DE
:101790002249234806F00AFF786800F043F8034620
:1017A000002B01D1002335E07B681B687A68526802
:1017B000C2F35E0213441A783B681A707B685B6858
:1017C000C3F35E031A467B68DB68013B9A4214D17F
:1017D0007B681B79C3F30003DBB2DB43DBB203F0AE
:1017E0000103D9B27A68137961F3000313717A683F
:1017F000536803F0010353600BE07B685B68C3F33D
:101800005E035A1C22F0004279684B6862F35F0362
:101810004B60012318460837BD4680BD94F1000295
:10182000ECF0000280B584B000AF78607868FFF714
:101830004FFC0346002B02D0012B02D004E0002312
:101840001BE07B68DB6818E07B689B68C3F35E0382
:10185000FB607B685B68C3F35E03BB60FA68BB68D0
:101860009A4203D9FA68BB68D31A06E07B68DB6842
:101870001946FA68BB68D31A0B4418461037BD46A0
:1018800080BDFFFF80B582B000AF78607B68002B21
:1018900005D140F2BF120E490E4806F087FE7A6865
:1018A000137923F0010313717A68536803F001037D
:1018B00053607A68137A23F0010313727A6893688D
:1018C00003F00103936000BF0837BD4680BD00BF31
:1018D000ACF10002ECF0000280B586B000AFF86019
:1018E000B9607A603B60FB687B617B69002B04D147
:1018F00016220F490F4806F059FE7B683B613B6991
:10190000002B02D03B68082B01D000230CE07B6940
:101910009B6C9B683A6912681146F86898470346C1
:10192000DAB23B691A713B6818461837BD4680BD6C
:1019300078F40002C0F1000280B586B000AFF86014
:10194000B9607A603B60FB687B617B69002B04D1E6
:1019500026220E490E4806F029FE7B683B613B6952
:10196000002B02D03B68082B01D0002309E07B69E3
:101970009B6C5B683A6911683A691279F868984714
:101980003B6818461837BD4680BD00BF84F400028E
:10199000C0F1000280B586B000AFF860B9607A602F
:1019A000FB687B617B69002B04D137220C490D4811
:1019B00006F0FCFD7B683B613B69002B02D16FF0B8
:1019C000FE0309E07B699B6C1B683A6911683A6900
:1019D0001279F8689847002318461837BD4680BD2D
:1019E00090F40002C0F1000280B584B000AFF8604E
:1019F000B9607A60154B19221A76144B00221A62CC
:101A0000124B00225A62114B00229A620F4B0022A5
:101A1000DA620E4B00221A630C4B0D4A5A630B4BD1
:101A20000C4A9A63094B0C4ADA63084ABB68936410
:101A3000064A7B6853640322F9680448FFF716F8E6
:101A4000002318461037BD4680BD00BFDC030022CE
:101A5000D9180002391900029519000280B582B028
:101A600000AF78600B46FB70094B9B6C002B04D1D8
:101A700094220849084806F099FD054B9B6C1B68A9
:101A8000FA7879680248984700BF0837BD4680BD9C
:101A9000DC030022A0F40002D0F1000280B582B085
:101AA00000AF786039600A4B9B6C002B04D19A22FE
:101AB0000849094806F07AFD054B9B6C5B683A685B
:101AC000D2B279680248984700BF0837BD4680BD4A
:101AD000DC030022ACF40002D0F1000280B582B039
:101AE00000AF7860094B9B6C002B04D1A022084901
:101AF000084806F05BFD054B9B6C9B6879680348C2
:101B00009847034618460837BD4680BDDC030022CF
:101B1000BCF40002D0F1000280B582B000AF786062
:101B20000D4B9B6C002B04D1A7220C490C4806F0EE
:101B30003DFD094B9B6C9B69002B02D16FF0570355
:101B400005E0054B9B6C9B697868984703461846EF
:101B50000837BD4680BD00BFDC030022C8F4000288
:101B6000D0F1000280B582B000AF78607868FFF7EE
:101B7000D3FF034618460837BD4680BD80B500AF89
:101B8000114806F035FB114806F032FB104806F00C
:101B90002FFB104806F02CFB0F4806F029FB0F48DE
:101BA00006F026FB0E4806F023FB0E4806F020FB4D
:101BB0000D4806F01DFB0D4806F01AFB0C48FFF718
:101BC000ABFF00BF80BD00BFE8F10002FCF10002E6
:101BD00030F2000284F20002B4F20002E4F20002E9
:101BE0000CF3000250F3000280F30002A0F30002A5
:101BF000ACF3000280B584B000AF786039607B68D8
:101C0000022B02DCFFF7BAFF1BE03B6808331B68BE
:101C10001846FFF7A7FFF860FB68002B09DA3B685E
:101C200008331B681946084806F0E2FAFFF7A6FFDA
:101C300007E03B6808331B68FA681946034806F05A
:101C4000D7FA1037BD4680BDB0F30002CCF30002D6
:101C500080B584B000AF786039607B68032B02DC0C
:101C6000FFF78CFF6DE03B6808331B68184603F0F4
:101C7000D5FD0346002B13D13B6808331B6818467B
:101C8000FFF770FFF860FB68002B10DA3B68083341
:101C90001B6819462C4806F0ABFAFFF76FFF50E0BF
:101CA0003B6808331B6818460CF024FDF8603B685D
:101CB0000C331B681946254809F00EFB0346002B20
:101CC00002D10023BB6036E03B680C331B68194629
:101CD0001F4809F001FB0346002B02D10123BB6022
:101CE00029E03B680C331B6819461A4809F0F4FADE
:101CF0000346002B02D10223BB601CE03B680C337F
:101D00001B681946144809F0E7FA0346002B02D174
:101D10000323BB600FE03B680C331B6819460F4878
:101D200009F0DAFA0346002B02D10423BB6002E07B
:101D3000FFF724FF05E0BB68DBB21946F868FFF740
:101D40008DFE1037BD4680BDB0F30002D8F300020F
:101D5000E0F30002E8F30002F8F3000208F40002E6
:101D600080B584B000AF786039607B68022B02DCFC
:101D7000FFF704FF34E03B6808331B68184603F0A4
:101D80004DFD0346002B13D13B6808331B681846F2
:101D9000FFF7E8FEF860FB68002B10DA3B680833B9
:101DA0001B681946104806F023FAFFF7E7FE17E014
:101DB0003B6808331B6818460CF09CFCF860F86818
:101DC000FFF78CFE0346FB72FB7A012B04D1F96806
:101DD000064806F00DFA03E0F968054806F008FA2F
:101DE0001037BD4680BD00BFB0F3000214F40002FE
:101DF00024F4000280B584B000AF786039607B685D
:101E0000032B02DCFFF7BAFE59E03B6808331B687E
:101E1000184603F003FD0346002B13D13B6808333B
:101E20001B681846FFF79EFEF860FB68002B10DA6F
:101E30003B6808331B681946224806F0D9F9FFF7BA
:101E40009DFE3CE03B6808331B6818460CF052FCD2
:101E5000F8603B680C331B6819461B4809F03CFAD4
:101E60000346002B09D03B680C331B681946174802
:101E700009F032FA0346002B02D10123FB7219E06C
:101E80003B680C331B681946114809F025FA0346D4
:101E9000002B09D03B680C331B6819460D4809F02C
:101EA0001BFA0346002B02D10023FB7202E0FFF76E
:101EB00065FE04E0FB7A1946F868FFF7EFFD10377E
:101EC000BD4680BDB0F3000234F400023CF40002D1
:101ED00040F4000244F4000280B582B000AF7860A4
:101EE00039607B68022B02DCFFF748FE3EE03B686E
:101EF00004331B6819461F4809F0EEF90346002B0E
:101F000004D139687868FFF775FE2FE03B68043329
:101F10001B681946184809F0DFF90346002B04D165
:101F200039687868FFF794FE20E03B6804331B684B
:101F30001946124809F0D0F90346002B04D139683C
:101F40007868FFF70DFF11E03B6804331B68194602
:101F50000B4809F0C1F90346002B04D139687868B1
:101F6000FFF748FF02E0FFF709FE00BF0837BD4654
:101F700080BD00BF48F400024CF4000254F400029B
:101F80005CF4000280B582B000AF78607B68002B03
:101F900004D15D220449054806F008FB7B68DB6834
:101FA00018460837BD4680BDECF70002D4F40002A5
:101FB00080B584B000AF786039607B68002B05D1B4
:101FC00040F213121649174806F0F0FA7868FFF746
:101FD00029FCF860FB68002B01D100231CE07B6822
:101FE0001B687A685268C2F35E021A443B681A6042
:101FF0007B68DB687A685268C2F35E029B1A1A46F5
:10200000FB68934201D2FB6806E07B68DB687A6874
:102010005268C2F35E029B1A18461037BD4680BD57
:102020006CF60002D4F4000280B584B000AF786092
:102030000B467B807B68002B05D14FF496722749B5
:10204000274806F0B3FA7868FFF7ECFBF860FB6806
:10205000002B3ED07B88FA689A4201D2FB687B80D5
:102060007B68DB687A685268C2F35E029A1A7B88E2
:102070009A420EDD7B685B68C3F35E031A467B8879
:10208000134423F000417A68536861F35F0353609F
:1020900020E07B681B79C3F30003DBB2DB43DBB2D8
:1020A00003F00103D9B27A68137961F30003137165
:1020B0007A887B68DB6879684968C1F35E015B1ADE
:1020C000D31A23F000417A68536861F35F035360C9
:1020D00000E000BF1037BD4680BD00BF88F600029B
:1020E000D4F4000290B585B000AF78600B467B80D9
:1020F0007B68002B05D14FF4A5724A494A4806F087
:1021000055FA7B68DB689CB27868FFF78BFB034667
:102110009BB2E31AFB817A887B68DB689A420EDD0A
:102120007B68DB687B80414806F062F87B68DB688F
:1021300019463F4806F05CF83E4806F059F87B68BF
:10214000DB687A689268C2F35E029A1A7B889A42C8
:102150001BDD7B689B68C3F35E031A467B881344D0
:1021600023F000417A68936861F35F0393607A8893
:10217000FB899A424FD97B689B68C3F35E017A68FA
:10218000536861F35F03536045E07B681B7AC3F3D8
:102190000003DBB2DB43DBB203F00103D9B27A68A0
:1021A000137A61F3000313727A887B68DB687968BD
:1021B0008968C1F35E015B1AD31A23F000417A6883
:1021C000936861F35F0393607A88FB899A4224D90C
:1021D0007B689B68C3F35E027B685B68C3F35E0346
:1021E0009A420ED87B681B79C3F30003DBB2DB4352
:1021F000DBB203F00103D9B27A68137961F300030B
:1022000013717B689B68C3F35E017A68536861F35E
:102210005F03536001E000BF00E000BF1437BD461C
:1022200090BD00BFA4F60002D4F40002E4F4000262
:10223000F8F4000220F5000280B588B000AFF86025
:10224000B9607A603B60FB68002B02D07B68002B92
:1022500005D14FF4C2721D491D4806F0A7F93B682D
:10226000002B01D100232CE0FB68BB617B68FB6184
:102270003B687B611BE0BB699B6CDB68B869984776
:1022800038613B69002B16DB3B69DAB2FB691A70D7
:10229000FB690133FB613B68013B3B60BB699B8B86
:1022A00003F04003002B02D03B690A2B05D03B68AA
:1022B000002BE0D102E000BF00E000BF7A693B687C
:1022C000D31A18462037BD4680BD00BFC4F60002B1
:1022D00028F5000280B588B000AFF860B9607A6078
:1022E0003B603B68002B01D100233CE0FB68002BE6
:1022F00002D07B68002B05D14FF4DA721C491D48CF
:1023000006F054F9FB68BB617B68FB613B687B614D
:1023100021E0BB699B8B03F04003002B09D0FB69D4
:102320001B780A2B05D1BB699B6C9B680D21B86992
:102330009847BB699B6C9B68FA6912781146B8692B
:10234000984738613B69002B09DBFB690133FB616E
:102350003B68013B3B603B68002BDAD100E000BFEB
:102360007A693B68D31A18462037BD4680BD00BF46
:10237000D4F6000228F5000280B58EB000AFF860F8
:10238000B9607A603B6000237B633B68002B01D11E
:102390000023CBE0FB68002B02D07B68002B05D12B
:1023A00040F2E5126349644806F000F9FB68FB62FD
:1023B000FB6ADB6DBB62FB689B8B03F48053002BD5
:1023C00000F09A80FB6A1B6DC3F38F239BB25B08FE
:1023D0009BB23B62BB6A28331846FDF757FFF86192
:1023E000FB693B6304F0E6FAB8613B6B002B2FD02E
:1023F000FB6A6433184604F0FFFB7862BB6A184638
:10240000FFF710FA78613A687B6BD31A7A699A42BF
:1024100018D27A6B7B6913443A68D31A3A6A9A42A3
:1024200003D8BB6A3A6A5A6206E07A6B7B69134446
:102430003A68D21ABB6A5A62BB6A20330021184636
:10244000FEF705FDFB6A6433796A184604F0E2FB87
:10245000FB6A6433184604F0CFFB7862B86A7A6886
:102460007B6BD1183A687B6BD31A1A46FFF714F8C6
:1024700002467B6B13447B63FB6A6433796A1846BC
:1024800004F0C8FB7A6B3B689A424ED03B6B002B42
:102490004BD0BB6A2033396B1846FEF7D8FC3B6B38
:1024A000B3F1FF3FA1D0B86904F08EFA3861FB693F
:1024B0003A699A421BD3FB6A6433184604F09CFBCA
:1024C0007862B86A7A687B6BD1183A687B6BD31AEA
:1024D0001A46FEF7E1FF02467B6B13447B63FB6AFF
:1024E0006433796A184604F095FB7B6B1EE0FA6949
:1024F0003B69D31A3B6378E7FB689B8B03F400537B
:10250000002B12D0FB6A6433184604F075FB786226
:10251000BB6A3A6879681846FEF7BEFF7863FB6AC3
:102520006433796A184604F075FB7B6B18463837BC
:10253000BD4680BDE4F6000228F5000290B589B0E2
:1025400000AFF860B9607A603B603B68002B01D156
:1025500000236FE0FB68002B02D07B68002B05D1C5
:102560004FF410723549364806F020F8FB68FB61DD
:10257000FB691B6EBB61BB69002B05D14FF4117267
:102580002E49304806F012F807F0BEFC0346002B37
:102590000BD0FB699B8B03F04003002B05D105F0AA
:1025A000C5FD0246FB68934207D13B687A68B9686B
:1025B000F868FFF78FFE03463CE0BB691C33184602
:1025C000FDF702FF0346002B01D0002332E0BB6978
:1025D000103300211846FEF73AFCFB699B6C1C691E
:1025E0004FF480433A687968F869A04778617B695D
:1025F000002B01DC00231DE0BB6918331846FDF7F2
:1026000045FE0346002B01D1002313E0BB6903F113
:102610001004BB6918331846FDF738FE0346194607
:102620002046FEF714FC38613B69002B01D00023E3
:1026300000E07B6918462437BD4690BDF4F60002E1
:1026400028F500024CF5000290B58FB000AFF8609D
:10265000B9607A603B603B68002B01D10023BDE08C
:10266000FB68002B02D07B68002B05D14FF422724F
:102670005C495D4805F09AFFFB68FB62FB6A1B6ED4
:10268000BB62BB6A002B05D14FF4237255495748F2
:1026900005F08CFF07F038FC0346002B0BD0FB6ADB
:1026A0009B8B03F04003002B05D105F03FFD024654
:1026B000FB68934207D13B687A68B968F868FFF70E
:1026C00009FE03468AE0BB6A1C331846FDF77CFE10
:1026D0000346002B01D0002380E0BB6A1833184664
:1026E000FDF7D4FD78627B6A7B6304F063F938629E
:1026F00000233B636BE0FB6A6433184604F07CFA0A
:10270000F861B86A7A683B6BD1183A683B6BD31AA8
:102710001A46FEF74DFD0246BB6A5A61BB6A18466F
:10272000FFF780F8B861FB6A6433F969184604F072
:1027300071FABB6A103300211846FEF788FBFB6A6A
:102740009B6C1C697A683B6BD118BB6A5A694FF461
:102750008043F86AA04778617B69002B01DC3B6B02
:102760003CE07B6B002B37D0BB6A1033796B18468B
:10277000FEF76DFB7B6BB3F1FF3F23D0386A04F0AB
:1027800023F938617B6A3A699A4217D3FB6A64334A
:10279000184604F031FAF861BB6A1846FFF742F8B0
:1027A0000246BB699B1A3A6B13443B63FB6A643372
:1027B000F969184604F02EFA3B6B0FE07A6A3B6920
:1027C000D31A7B63BB6A5B693A6B13443B633A6B16
:1027D0003B689A428FD100E000BF3B6B18463C3704
:1027E000BD4690BD14F7000228F500024CF500022A
:1027F00090B58BB000AFF860B9607A603B600023A1
:102800003B613B68002B01D100236BE0FB68002B90
:1028100002D07B68002B05D14FF43D723349344818
:1028200005F0C4FEFB687B627B6A1B6E3B623B6A01
:10283000002B05D14FF43E722C492E4805F0B6FE10
:102840003B6A1C331846FDF7BFFD0346002B35D10C
:102850007B6A6433184604F0CFF9F8613B6A3A6842
:1028600079681846FEF7A4FCB8613B6A07F11002CC
:1028700011461846FFF79CFB03461A463B6A5A610D
:102880007B6A6433F969184604F0C4F93B6A103373
:1028900000211846FEF7DBFA7B6A9B6C1C693969DC
:1028A0003B6A5A694FF40043786AA04778617B69B4
:1028B000002B01DC002315E0BB6913E07B6A643365
:1028C000184604F099F9F8613B6A3A687968184645
:1028D000FEF76EFCB8617B6A6433F969184604F050
:1028E00099F9BB6918462C37BD4690BD34F70002F4
:1028F00028F500024CF5000280B586B000AF786084
:102900000B467B8000237B6100233B617B68002BAF
:1029100005D14FF44D728549854805F047FE7B6827
:10292000FB60FB68B3F85430002B1DD17B88B3F5F6
:10293000004F0DD17F4805F05BFC7B6819467E484F
:1029400005F056FC7D4805F053FC6FF01503E9E0F7
:102950007B687B4A9A637B689B8B43F480439AB283
:102960007B689A830023DDE0FB68B3F854303F2B8B
:1029700003D8FB684022A3F854207B88B3F5804F2E
:1029800040F08680FB689B6C5B684FF4804220219E
:10299000F868984738613B69002B01DA3B69C1E070
:1029A0003B69BB60BB68012B2AD1FB68B3F854308C
:1029B0002033184605F096FD78617B69002B05D120
:1029C00040F25E3259495F4805F0F0FDFB68B3F80C
:1029D000543020331A460021786908F0BFFA78692C
:1029E0007B6903F12001FB68B3F854301A46FEF707
:1029F00095FBFB687A691A667B68534A9A632AE0FA
:102A0000BB68002B24D1202005F06CFD78617B6928
:102A1000002B05D140F26E3244494A4805F0C6FD0C
:102A200020220021786908F099FAFB687A691A6611
:102A30007B68464A9A63FB689B6C5B684FF48042F4
:102A40000321F868984738613B69002B03DA68E096
:102A50006FF0040366E07B691C331846FDF797FCB2
:102A60007B6900225A617B6918334FF0FF311846A9
:102A7000FDF72BFC7B6910331846FEF7F7F97B68EE
:102A80009B8B43F480439AB27B689A83002349E08E
:102A9000FB68B3F854302033184605F023FD786105
:102AA0007B69002B05D140F293322049254805F07F
:102AB0007DFDFB68B3F8543020331A460021786955
:102AC00008F04CFA78697B6903F12001FB68B3F8E0
:102AD00054301A46FEF722FBFB687A691A667B6956
:102AE0001C331846FDF753FC7B6900225A617B6852
:102AF000174A9A637B6910331846FEF7B7F97B686B
:102B00009B8B6FEA43436FEA53439AB27B689A8385
:102B1000FB689B6C5B684FF400420321F8689847A0
:102B200038613B6918461837BD4680BD50F7000232
:102B300060F5000270F5000284F5000220F5000245
:102B4000D52200024CF50002492600023D25000274
:102B5000F127000280B586B000AF78600B467B801D
:102B600000237B6100233B617B68002B05D14FF480
:102B70006F725C495C4805F019FD7B68FB60FB687F
:102B80001A6D5A4B1340002B1DD17B88B3F5005FA3
:102B90000DD1574805F02CFB7B681946554805F0C8
:102BA00027FB554805F024FB6FF0150396E07B6882
:102BB000524A5A637B689B8B43F480539AB27B687A
:102BC0009A8300238AE0FB681B6DC3F38F239BB2BB
:102BD0003F2B05D8FA68136D402161F399231365E3
:102BE000FB68B3F858301F2B03D8FB682022A3F8EA
:102BF0005820FB681B6DC3F38F239BB21A46FB68FA
:102C0000B3F8583013442C333B61386905F06AFC43
:102C100078617B69002B05D140F2DD3231493848BB
:102C200005F0C4FC3A690021786908F097F97869E1
:102C30007B6903F12C01FB681B6DC3F38F239BB2EF
:102C40001A46FEF76BFA7B6903F11000FB681B6DF7
:102C5000C3F38F239BB22C337A69D118FB68B3F886
:102C600058301A46FEF75AFAFB687A69DA657B68CB
:102C7000244A5A637B88B3F5005F10D17B689B8B35
:102C800043F400539AB27B689A83FB689B6C5B6841
:102C90004FF400520321F868984703461EE07B6911
:102CA00000225A627B6928334FF0FF311846FDF746
:102CB0000CFB7B6920331846FEF7D8F87B689B8BAA
:102CC00043F480539AB27B689A83FB689B6C5B6881
:102CD0004FF480520321F868984703461846183786
:102CE000BD4680BD64F7000260F5000200FCFF03F2
:102CF00070F50002B8F5000220F50002392200024A
:102D0000ECF500027923000280B584B000AF786052
:102D10000B467B807B68002B05D140F20D42274992
:102D2000274805F043FC7B68FB607B6800225A6300
:102D3000FB68DB6D002B01D100233AE0FB68DB6D03
:102D4000BB60BB68002B05D140F217421B491D48F0
:102D500005F02CFC7B88B3F5005F0FD17B689B8B63
:102D600023F400539AB27B689A83FB689B6C5B6880
:102D70004FF400520721F868984713E0BB682033EE
:102D80001846FEF757F87B689B8B23F480539AB262
:102D90007B689A83FB689B6C5B684FF480520721C9
:102DA000F8689847B86805F0DFFBFB680022DA6531
:102DB000002318461037BD4680BD00BF78F70002DB
:102DC00060F50002ECF5000280B584B000AF7860D9
:102DD0000B467B807B68002B05D140F23D422749A2
:102DE000274805F0E3FB7B68FB607B6800229A6361
:102DF000FB681B6E002B01D100233AE0FB681B6EC1
:102E0000BB60BB68002B05D140F247421B491D48FF
:102E100005F0CCFB7B88B3F5004F0FD17B689B8B13
:102E2000C3F30E039AB27B689A83FB689B6C5B6862
:102E30004FF400420721F868984713E0BB6810334D
:102E40001846FDF7F7FF7B689B8B23F480439AB20B
:102E50007B689A83FB689B6C5B684FF48042072118
:102E6000F8689847B86805F07FFBFB6800221A668F
:102E7000002318461037BD4680BD00BF90F7000202
:102E800060F500024CF5000280B584B000AF7860B8
:102E90000023FB607B68002B05D140F26B42154993
:102EA000154805F083FB7B68BB60BB689B6C1B69A6
:102EB000002B05D140F26D420E49104805F076FB1B
:102EC000BB680022DA65BB6800221A66BB689B6C8F
:102ED0001B68002B08D0BB689B6C1B68BA684C321F
:102EE0001146B8689847F860FB6818461037BD4629
:102EF00080BD00BFA8F7000260F5000200F60002E6
:102F000080B584B000AF78607B68002B05D140F2BB
:102F100083421D491D4805F049FB7B68FB607B68C7
:102F20009B8B03F440539BB219467868FFF7ECFE85
:102F30007B689B8B23F47F5323F03F039BB219469E
:102F40007868FFF741FFFB6800221A62FB680022E5
:102F50005A62FB686C3308220021184607F0FEFF16
:102F6000FB689B6C5B6800220421F86898477B68CB
:102F70005B8B23F010039AB27B685A8300231846B8
:102F80001037BD4680BD00BFB8F7000260F50002F3
:102F900080B584B000AF78600B467B800023FB6077
:102FA0007B68002B05D140F2A3423949394805F02E
:102FB000FDFA7B68BB607B8803F48053002B07D04D
:102FC0007B689B8B43F480539AB27B689A8306E0BC
:102FD0007B689B8B43F400539AB27B689A83B7F962
:102FE0000230002B09DA7B689B8B6FEA43436FEA60
:102FF00053439AB27B689A8306E07B689B8B43F4C9
:1030000080439AB27B689A837B8803F04003002B4D
:1030100005D17B689B8B03F04003002B06D07B68B7
:103020009B8B43F040039AB27B689A83BB68DB6D4D
:10303000002B10D17B689B8B03F440539BB2194645
:103040007868FFF787FDF860FB68002B03D078688D
:10305000FFF756FF17E0BB681B6E002B12D17B6891
:103060009B8B23F47F5323F03F039BB21946786870
:10307000FFF742FCF860FB68002B03D07868FFF78D
:103080003FFF00E000BFFB6818461037BD4680BD1B
:10309000C8F7000260F5000290B587B000AF786015
:1030A0007B68002B05D140F2D7422A492A4805F017
:1030B0007DFA7B681A6D294B1340002B13D16FF0FA
:1030C00070437B6102E07B69013B7B617B689B6CA9
:1030D000DB68786898470346B3F1FF3F36D07B69D9
:1030E000002BF0D132E07B68DB6D3B613B69002B4C
:1030F00005D140F2E4421749194805F057FA7B68B8
:103100006433184603F078FDF8603B6920330021F2
:103110001846FDF79CFE3B691846FEF7B3FB3B697A
:1031200000225A623B6903F110043B6910331846D0
:10313000FEF728FF03469BB219462046FEF774FFB0
:103140007B686433F968184603F064FD00BF1C37E0
:10315000BD4690BDD8F7000224F6000200FCFF0334
:10316000ECF5000280B584B000AF78607B68002B7E
:1031700005D140F2F4421449144805F017FA7B686F
:10318000B3F85430002B1AD07B681B6EFB60FB68D1
:10319000002B05D140F2F9420B490D4805F006FA23
:1031A000FB681C331846FDF771F80346002B06D068
:1031B000FB6810334FF0FF311846FDF748FE00BFA3
:1031C0001037BD4680BD00BF04F8000224F600029F
:1031D0004CF5000280B584B000AF786039607B6840
:1031E000002B05D140F206521F49204805F0DEF9B8
:1031F0007B681A6D1E4B1340002B0FD11D4804F045
:10320000F7FF1D4804F0F4FF1C4804F0F1FF3B6891
:103210004FF0FF321A604FF0FF3320E07B68DB6D28
:10322000FB60FB68002B05D14FF4A2620E491448E5
:1032300005F0BCF97B686433184603F0DDFCB86028
:10324000FB681846FEF7EEFA03461A463B681A601A
:103250007B686433B968184603F0DCFC0023184629
:103260001037BD4680BD00BF18F8000224F60002EA
:1032700000FCFF03E4F4000238F6000220F500022F
:10328000ECF5000290B58DB000AFF860B9607A60DF
:103290000023FB62FB68002B05D140F26952B5495F
:1032A000B54805F083F9FB68BB62BB68013B472B5F
:1032B00000F2C58101A252F823F000BFED330002F5
:1032C000DD330002FD3300023F360002933400027A
:1032D0003F3600023F3600023F360002B1340002A2
:1032E0003F3600023F3600023F3600023F36000202
:1032F0003F3600023F3600023F3600023F360002F2
:103300003F3600023F3600023F3600023F360002E1
:103310003F3600023F3600023F3600023F360002D1
:103320003F3600023F3600023F3600023F360002C1
:103330003F3600023F3600023F3600023F360002B1
:103340003F3600023F3600023F3600023F360002A1
:103350003F3600023F3600023F3600023F36000291
:103360003F3600023F3600023F3600023F36000281
:103370003F3600023F3600023F3600023F36000271
:103380003F3600023F3600023F3600023F36000261
:103390003F3600023F3600023F3600023F36000251
:1033A0003F3600023F3600023F3600023F36000241
:1033B0003F3600023F3600023F360002C9340002A9
:1033C0001935000267350002C935000215360002C2
:1033D0001D3600022536000271340002FB685B8B4B
:1033E00043F020039AB2FB685A8331E1FB685B8BA0
:1033F00023F020039AB2FB685A8329E17B68002BF3
:1034000003D16FF01503FB6222E17B683B613B69EE
:103410005B68C3F38F239AB2BB6A1B6DC3F38F2320
:103420009BB29A420DD13B691A89BB6AB3F85430FA
:103430009A4206D13B699A89BB6AB3F858309A42DE
:1034400007D0BB6A9B7F002B03D06FF00F03FB629A
:10345000FEE0BB6A3A6903F14C0413460FCB84E8E3
:103460000F00BB6A9B6C1B687968B86A9847EFE0ED
:103470007B68002B03D16FF01503FB62E8E07B68EB
:103480007B627A6ABB6A14464C330FCB84E80F0028
:10349000DEE07B68002B03D16FF01503FB62D7E001
:1034A000BB6A6C3308227968184607F0BBFDCFE091
:1034B0007B68002B03D16FF01503FB62C8E07B68CB
:1034C00045F243021A80C3E07B68002B03D16FF002
:1034D0001503FB62BCE0BB6A1A6D284B1340002B3E
:1034E00002D14FF0FF33FB6200237B61BB6ADB6DCF
:1034F0007B617B69002B05D140F2C1521D492048F8
:1035000005F054F87B6903F128027B681B681946B3
:103510001046FCF7DAFE9BE07B68002B03D16FF0CE
:103520001503FB6294E0BB6AB3F85430002B02D160
:103530004FF0FF33FB620023BB61BB6A1B6EBB61B4
:10354000BB69002B05D140F2D6520A490D4805F05F
:103550002DF8BB6903F118027B681B6819461046F9
:10356000FCF7B3FE74E07B68002B0DD16FF0150300
:10357000FB626DE038F8000260F5000200FCFF031A
:10358000ECF500024CF50002BB6A1A6D334B134098
:10359000002B02D14FF0FF33FB620023FB61BB6ABB
:1035A000DB6DFB61FB69002B05D140F2EA522C492F
:1035B0002C4804F0FBFFFB6928331846FCF766FE35
:1035C00002467B681A6043E07B68002B03D16FF0F2
:1035D0001503FB623CE0BB6AB3F85430002B02D108
:1035E0004FF0FF33FB6200233B62BB6A1B6E3B6202
:1035F0003B6A002B05D140F2FE5219491A4804F0EB
:10360000D5FF3B6A18331846FCF740FE02467B683C
:103610001A601DE0B86AFFF73FFD19E0B86AFFF7CE
:10362000A1FD15E07B68002B03D16FF01503FB6251
:103630000EE07968B86AFFF7CDFDF86208E0BB6A72
:103640009B6C5B687A68B968B86A9847F86200BF93
:10365000FB6A18463437BD4690BD00BF00FCFF032F
:1036600038F80002ECF500024CF5000280B586B097
:1036700000AFF860B9607A603B60FB68002B05D151
:1036800040F246721A491B4804F090FFFB6864330D
:10369000184603F090FAFB687B617B6900221A767A
:1036A0007B6900221A627B6900225A627B69124A96
:1036B0009A627B69114ADA627B69114A1A637B69F3
:1036C00000225A637B6900229A637B690D4ADA63A0
:1036D0007B693A685A647B689BB21A46B968786914
:1036E000FDF7C4F938613B6918461837BD4680BDFF
:1036F0004CF8000224F60002892E0002912F0002ED
:10370000012F00028532000280B588B000AFF8605A
:10371000B9607A60FB68002B05D140F26D723A49BE
:103720003A4804F043FF0023FB61BB68032B46D0FB
:10373000BB68032B5DDCBB68012B1FD0BB68022B71
:1037400057D17B68002B03D16FF01503FB6155E067
:1037500000237B61FB68DB6D7B617B69002B05D1FE
:1037600040F27B7228492A4804F020FF7A697B687E
:103770001B7819461046FDF789FF3FE07B68002B58
:1037800003D16FF01503FB6137E000233B61FB6859
:103790001B6E3B613B69002B05D140F28E721A49CA
:1037A0001C4804F003FF3B6979681846FDF7E6FF03
:1037B0000346002B21D16FF03C03FB611DE07B68C9
:1037C000002B03D16FF01503FB6117E00023BB61F1
:1037D000FB68DB6DBB61BB69002B05D14FF4F46264
:1037E00009490B4804F0E2FEBB691A697B681A605C
:1037F00004E06FF01503FB6100E000BFFB691846B1
:103800002037BD4680BD00BF64F8000224F60002E8
:10381000ECF500024CF5000290B58FB000AF786077
:1038200039607B68002B05D140F2B572A049A148F0
:1038300004F0BCFE3B68DBB2013B032B00F22A81A3
:1038400001A252F823F000BF593800025739000294
:1038500059380002DF3900027B68DB6DFB61FB69D0
:10386000002B05D140F2BF729149934804F09EFEAF
:103870003B681B12BB61BB69002B36D07B6864338D
:10388000184603F0B9F97861FB691033BA6992B24E
:1038900011461846FEF726FCFB69103307F10C02AF
:1038A00011461846FDF790FE3861FB69F9683A69E0
:1038B0001846FDF71BFDFB69103307F10C0211469A
:1038C0001846FDF781FE38613B69002B06D0FB6985
:1038D000F9683A691846FDF709FD00E000BF7B680A
:1038E00064337969184603F095F9FB691846FDF7CA
:1038F00099FFB861BB69002B00F0CE807B689B8B81
:1039000003F48053002B10D0FB695B6A002B0CD0B2
:10391000FB695B6ABA699A4207D3FB6900225A6263
:10392000FB6920331846FDF785FA7B681B6A002B7C
:1039300005D07B681B6A7A68B969104698477B682E
:10394000DB6E002B00F0AA807B68DB6E7A68126F5A
:1039500010469847A2E07B681B6EBB62BB6A002BD7
:1039600005D140F61A025249544804F01FFEBB6AC2
:103970001846FDF757FF78627B6A002B14D1BB6AAB
:1039800010331846FDF756FA7B685B6A002B05D0AA
:103990007B685B6A7A68002110469847BB6A1C33D3
:1039A0001846FCF7F4FC7EE0BB6A1C331846FCF7B3
:1039B0000BFD7B689B6C1C69BB6A19687B689B8BE1
:1039C00003F440437A6A7868A04738623B6A002B68
:1039D00066DCBB6A1C331846FCF7D9FC60E07B68E8
:1039E0001B6E7B637B6B002B05D140F64402304994
:1039F000324804F0DBFD7B689B8B03F48043002B93
:103A000033D17A6B7B6B5B699BB219461046FEF72C
:103A10000BFB7B6B1846FDF705FF38633B6B002BF8
:103A200023D07B6B1C331846FCF7CEFC7B6B07F175
:103A3000080211461846FEF7BBFA03461A467B6B8E
:103A40005A617B689B6C1C69B9687B6B5A694FF43F
:103A500000437868A047F862FB6A002B22DC7B6B8E
:103A60001C331846FCF793FC1CE07B6B10331846A4
:103A7000FDF7E0F97B685B6A002B05D07B685B6A29
:103A80007A680021104698477B6B1C331846FCF778
:103A90007EFC08E000BF06E000BF04E000BF02E0DB
:103AA00000BF00E000BF00BF3C37BD4690BD00BF77
:103AB00080F8000224F60002ECF500024CF500024A
:103AC00080B400AF5C4AB2F8243C23F4E063A2F86F
:103AD000243C00BF584B93F8503CDBB2002BF9D18B
:103AE000554AB2F8243C022161F30713A2F8243CA2
:103AF00000BF514B93F8503CDBB2002BF9D14E4A3A
:103B0000B2F8243C052161F30303A2F8243C00BF72
:103B1000494B93F8503CDBB2002BF9D1464A92F85E
:103B2000203C43F0010382F8203C00BF424B93F855
:103B3000503CC3F3C003DBB2002BF7D13E4A92F8EE
:103B4000003C23F0300382F8003C3B4A92F8023CF0
:103B500043F0010382F8023C374A92F8013C23F01B
:103B6000010382F8013C00BF334B93F8503CDBB2B9
:103B7000002BF9D1304B4FF40C72A3F8482C00BF46
:103B80002D4B93F8503CC3F30003DBB2002BF7D16D
:103B9000294AD2F8443C052161F31243C2F8443C5F
:103BA000254AD2F8443C022161F30D33C2F8443C6B
:103BB000214AD2F8443C022161F34B23C2F8443C31
:103BC0001D4AD2F8443C43F48073C2F8443C1A4A7C
:103BD000D2F8443C032161F30203C2F8443C164A84
:103BE00092F8403C012161F3010382F8403C124A03
:103BF000B2F8143C072161F30F33A2F8143C0E4ACB
:103C0000B2F8143C4FF46A7161F30B03A2F8143C50
:103C1000094A92F8163C43F0010382F8163C064A22
:103C200092F8003C43F0010382F8003C00BFBD461F
:103C30005DF8047B704700BF0030004080B500AFE6
:103C4000FFF73EFF0C4804F0D3FA10234FF0007248
:103C50004FF0D041094804F0CBFA094804F0C8FA03
:103C60004FF000734FF0D0420649074804F0C6FCFD
:103C70000023184680BD00BF94F80002A8F8000297
:103C8000F0F80002F8F800022804002280B483B0A3
:103C900000AF0346FB800A49FB881B0A9BB21A4609
:103CA000FB88DBB21201134451F82330C3F3400305
:103CB000DBB218460C37BD465DF8047B704700BF89
:103CC0000008404080B485B000AF03460A46FB8040
:103CD00013467B711449FB881B0A9BB21A46FB886A
:103CE000DBB21201134451F82330FB60FB6823F070
:103CF000011323F44043FB607B79FA681343BB60F4
:103D00000948FB881B0A9BB21946FB88DBB2BA68DC
:103D100042F0040209010B4440F8232000BF14378D
:103D2000BD465DF8047B70470008404080B485B014
:103D300000AF0023FB60EFF310837B607B68FB60C8
:103D40000123BB60BB6883F3108800BF0D4B1B6869
:103D5000002B05D10C4B00221A750B4B40221A7513
:103D6000084B1B680133074A1360FB683B603B68E4
:103D700083F3108800BF00BF1437BD465DF8047B95
:103D8000704700BFC00D0022000D404080B485B0D8
:103D900000AF0023FB60EFF310837B607B68FB6068
:103DA0000123BB60BB6883F3108800BF0F4B1B6807
:103DB000002B04D00D4B1B68013B0C4A13600B4BCE
:103DC0001B68002B05D10A4B00221A75084B802274
:103DD0001A75FB683B603B6883F3108800BF00BF27
:103DE0001437BD465DF8047B704700BFC00D00224C
:103DF000000D404080B586B000AFF860B960134652
:103E0000FB713149314809F041F878617B69002B39
:103E100009D02F4804F0ECF92E4804F0E9F92E48B7
:103E200004F0E6F94DE0FB79042B30D0042B48DC9C
:103E3000002B02D0012B15D043E0BB689BB20122BE
:103E40001946224809F053F878617B69002B33D07A
:103E50001F4804F0CDF9214804F0CAF91E4804F0C7
:103E6000C7F92EE0BB689BB200221946174809F03B
:103E70003EF878617B69002B20D0154804F0B8F932
:103E8000174804F0B5F9144804F0B2F919E0BB681A
:103E90009BB2402219460D4809F029F878617B69E8
:103EA000002B0DD00A4804F0A3F90E4804F0A0F945
:103EB000094804F09DF904E000BF02E000BF00E003
:103EC00000BF1837BD4680BDFC210102700F0022E3
:103ED00000F9000210F9000224F900022CF9000296
:103EE00054F9000278F9000280B586B000AFF8609E
:103EF000B9601346FB710123FB75FA79FB7D9A4289
:103F000001D00023FB75FFF711FFBB689BB2FA7D60
:103F100011461846FFF7D6FEFFF738FF00BF1837E7
:103F2000BD4680BD80B582B000AF786039603B6827
:103F3000B3F5316F02DA3B68002B02DA6FF015033C
:103F400005E03B689BB21846FFF7A0FE0346184603
:103F50000837BD4680BD80B485B000AFF860B96059
:103F60001346FB716FF0FE0318461437BD465DF82B
:103F7000047B704780B485B000AFF860B9603B60E7
:103F80001346FB716FF0FE0318461437BD465DF80B
:103F9000047B704780B483B000AF786039606FF005
:103FA000FE0318460C37BD465DF8047B7047FFFFE3
:103FB00080B582B000AF7860786807F0AFF903464B
:103FC000042B3AD17B681B78502B03D07B681B787D
:103FD000702B32D17B6801331B782F2B2DD97B6856
:103FE00001331B78392B28D87B6802331B782F2BA1
:103FF00023D97B6801331B78392B1ED87B680333A8
:104000001B782F2B19D97B6801331B78392B14D8D7
:104010007B6801331B78303B19027B6802331B78C5
:10402000A3F1300213469B0013445B00CA187B685F
:1040300003331B78303B13440AE0074804F0D8F8F8
:10404000064804F0D5F8064804F0D2F86FF0FE03F5
:1040500018460837BD4680BDA0F90002B0F900023D
:1040600024F9000280B500AF002203490348FDF7A0
:10407000BBFC0346184680BDECF90002E8F90002DB
:1040800090B484B000AF1C4B3C460FCB84E80F00CB
:104090001A4B03F14C043B460FCB84E80F00174B3F
:1040A0000022A3F87420154A136D4FF4807161F358
:1040B00099231365114B0022A3F854200F4B03F1F1
:1040C000C8043B460FCB84E80F000C4B0022A3F83A
:1040D000F0200A4AD2F8CC304FF4807161F3992372
:1040E000C2F8CC30054B0022A3F8D02000BF103717
:1040F000BD4690BC704700BF1CFA0002A00400221D
:1041000080B584B000AF786039607B68002B04D143
:10411000CE221749174804F049FA3B68002B04D116
:10412000CF221349144804F041FA0023FB607B6856
:10413000BB60BB68002B04D1D4220D490F4804F0AA
:1041400035FABB689B6F5A68BB689B6F9B681946C2
:10415000104609F00BFDF860FB68002B02D06FF0F1
:10416000FE0300E0002318461037BD4680BD00BFA7
:1041700098FA00022CFA000240FA000250FA0002FB
:1041800080B485B000AFF860B9607A60002318464B
:104190001437BD465DF8047B7047FFFF80B584B0DF
:1041A00000AF78600B46FB707B68002B04D1EB22DC
:1041B0001149124804F0FAF97B68FB60FB68002B98
:1041C00004D1EE220C490E4804F0F0F9FB689B6F15
:1041D0005B68BB60BB681B6AFA785A6000BFBB684B
:1041E0001B6A9B6CC3F38073DBB2002BF7D00023F8
:1041F00018461037BD4680BDACFA00022CFA00020A
:1042000050FA000280B483B000AF786000231846F3
:104210000C37BD465DF8047B7047FFFF80B586B064
:1042200000AFF860B9607A603B60FB68002B05D195
:1042300040F20D121149124804F0B8F9BB68002B86
:1042400005D14FF487720D490E4804F0AFF9FB68B1
:104250007B617B69002B05D14FF4887207490A48BE
:1042600004F0A4F93B681A460621F868FFF788FFB6
:104270007B6818461837BD4680BD00BFBCFA0002F7
:104280002CFA000260FA000250FA000280B584B0F5
:1042900000AF786003F0AAFE114BFB60FB68002BB7
:1042A00005D140F2C9120F490F4804F07FF97B682D
:1042B0001B79042B0ED17B689B68DBB2FB7207F184
:1042C0000B031A460221F868FFF71EFA0121F8686D
:1042D000FFF7A2FA03F09EFE00BF1037BD4680BD77
:1042E0001C050022D0FA00022CFA000280B584B02E
:1042F00000AF0023FB6002237B60FFF7C1FE0023B9
:10430000BB603BE0BA6813465B0013449B00204A45
:1043100099182048BA6813465B019B1A9B00034416
:10432000783319601B49BA6813465B019B1A9B00DE
:104330000B444833184A1A60BA6813465B019B1A4B
:104340009B00144A98181349BA6813465B019B1ADC
:104350009B000B4478331B68196800230322FFF786
:1043600085F9F860FB68002B05D04FF4F8720B4913
:104370000B4804F01BF9BB680133BB60BB687A686B
:104380009A42BFD8FB6818461037BD4680BD00BFB3
:1043900000000022A004002284FA0002E4FA0002D5
:1043A00070FA000280B483B000AF03463960FB713D
:1043B00097F90730002B0ADB3B68DAB20C4997F912
:1043C00007301201D2B20B4483F800230AE03B68A5
:1043D000DAB20849FB7903F00F03043B1201D2B2B1
:1043E0000B441A7600BF0C37BD465DF8047B70475E
:1043F00000E100E000ED00E080B400AFBFF34F8FBC
:1044000000BF064BDB6803F4E0620449044B13432E
:10441000CB60BFF34F8F00BF00BFFDE700ED00E0B2
:104420000400FA0580B582B000AF78607B68013B7C
:10443000B3F1807F01D301230FE00A4A7B68013B7F
:1044400053600F214FF0FF30FFF7ACFF054B002208
:104450009A60044B07221A60002318460837BD46AD
:1044600080BD00BF10E000E080B582B000AF034621
:104470003960FB71FFF7C0FF80B500AF074B1B68C9
:10448000074AA2FB03239B091846FFF7CBFFFF2136
:104490004FF0FF30FFF786FF00BF80BD4C0F0022BA
:1044A000D34D621080B500AF03F0A0FD02F0A2FA78
:1044B00003F0B0FD00BF80BD80B500AFFFF7DCFFAB
:1044C0000749084804F000F8FFF7CCFDFFF70EFF9E
:1044D000054803F037FE02F0E7FA00BF80BD00BFD9
:1044E00000000E22A872002210FB000280B582B0EC
:1044F00000AF0346FB71FB79022B05D1044B5B68CF
:104500001946044808F0C2FC00BF0837BD4680BD0C
:10451000E81D0102700F002280B500AF1B4B1B6825
:1045200093F82D3003F00203DBB2002B04D1184BBB
:1045300000221A70164B26E0164B1B68002B07D082
:10454000144B1B6880221946114806F049FE03E00F
:1045500011490F4806F076FE0D4806F0DFFE0346CF
:1045600002337F2B0ED80A4806F0D8FE0346084ACD
:104570003E21D154064806F0D1FE03460133044AD9
:104580000021D154024B184680BD00BFA005002277
:10459000AC050022A405002218FB000280B582B001
:1045A00000AF78600C4B1B68002B04D199220B499B
:1045B0000B4803F0FBFF084B1A687B6803F001030C
:1045C000D9B292F82D3061F3410382F82D3000BF4B
:1045D0000837BD4680BD00BFA0050022A8FB000231
:1045E00020FB000280B582B000AF0023FB701E4BA1
:1045F0001B68002B04D1AD221C491D4803F0D6FFD7
:10460000194B1B68D3F818327B607B68002B1BD1D9
:104610004FF0FF3323E0144B1B684FF0FF31184677
:1046200002F010FF104B1B68D3F818327A689A42D8
:104630000AD00D4B1B68D3F818327B607B68002BC7
:1046400002D14FF0FF330AE0FA1C01234FF0FF3193
:104650007868FCF73DFB0346012BDCD1FB7818465C
:104660000837BD4680BD00BFA0050022C0FB000288
:1046700020FB000280B582B000AF78603960094B42
:104680001B68002B04D1CC220749084803F08EFF99
:10469000044B1B68184602F0E5FE00231846083755
:1046A000BD4680BDA0050022D0FB000220FB000219
:1046B00080B584B000AF78600023FB602D4B1B6891
:1046C000002B04D1DF222C492C4803F06FFF7868BF
:1046D000FCF7F6F9F860FB68002B04D179682848EC
:1046E00003F086FD42E0234B1B68D3F81832FA68CA
:1046F0009A423AD040F24311F868FCF7EFF90346CA
:10470000002B33D11B4B1B68D3F81832002B0ED073
:10471000184B1B68D3F818321846FCF78BFA154B68
:104720001B68D3F8183200211846FCF759FB114BCF
:104730001B6803F5E17351220021184606F00EFCB8
:104740000C4B1B680022A3F814220A4A1268B3F823
:104750001432A2F81632074B1B68FA68C3F8182205
:104760000849F868FCF73CFB00E000BF1037BD4685
:1047700080BD00BFA0050022E0FB000220FB00027C
:1047800034FB00027546000280B582B000AF78604D
:104790000A4803F02DFD786800F066FE786800F0A6
:1047A000A3FFFFF7B9FE03467A681946044803F0F1
:1047B0001FFD00BF0837BD4680BD00BF54FB00028F
:1047C00058FB000280B582B000AF7860084803F063
:1047D0000FFDFFF7A1FE01467B6803F5E1731A4662
:1047E000044803F005FD002318460837BD4680BD88
:1047F00060FB000258FB000280B584B000AF786017
:104800007B68B3F81432002B00F09D807B681B8E10
:10481000042B51D97B6803F5B9707B6803F5E1730C
:104820005022194606F0ACFC0346002B00F08B80AA
:104830000023FB6019E0FA6813469B0013441B0138
:1048400030337A681344981CFB685A1C13469B004B
:1048500013441B0130337A68134402335022194643
:1048600006F0E0FBFB680133FB60FB68032BE2DD35
:10487000FA6813469B0013441B0130337A681344D3
:10488000023350220021184606F068FBFA681346EE
:104890009B0013441B0130337A681344981C7B68D7
:1048A00003F5E1717B68B3F814321A4606F0BAFBDF
:1048B0007B6805221A8646E07B681B8E002B14D08D
:1048C0007B681B8E5A1E13469B0013441B0130331A
:1048D0007A681344981C7B6803F5E17350221946EB
:1048E00006F04EFC0346002B2DD07B681A8E7B68A9
:1048F000DA857B681B8E1A4613469B0013441B0106
:1049000030337A681344023350220021184606F0EF
:1049100025FB7B681B8E1A4613469B0013441B0124
:1049200030337A681344981C7B6803F5E1717B6827
:10493000B3F814321A4606F075FB7B681B8E013300
:104940009AB27B681A867B681A8E7B68DA8500BF0C
:104950001037BD4680BDFFFF80B588B000AF7860DE
:104960009D4B1B68002B02D09B4B1B6898479B4BB1
:104970001A6892F82D3043F0010382F82D30974BDE
:104980001B68D3F81832002B09D103F0CFFB386134
:104990003B69002B03D03B691846FFF789FEFFF700
:1049A000BBFD034619468E4803F022FCFFF71AFEB2
:1049B000F860FB68002BC0F2CF82FB681B2B05D18F
:1049C000864B1B68012283F82C20D0E2834B1B68A6
:1049D00093F82C30012B1AD1FB685B2B0BD0FB68B2
:1049E000412B08D0FB68422B05D0FB68432B02D03B
:1049F000FB68442B05D1794B1B68022283F82C20DD
:104A0000B5E2764B1B68002283F82C20D6E0734B6E
:104A10001B6893F82C30022B40F0D0806F4B1B6842
:104A2000002283F82C20FB68412B3DD16B4B1B6887
:104A3000DB8D002B33D0694B1B68DA8D013A92B2C3
:104A4000DA85664B1B6803F5E170644B1A68634BAB
:104A50001B68DB8D19460B469B000B441B01303352
:104A6000134402335022194606F0DCFA5B4B1B68F4
:104A700003F5E173184606F051FC0246574B1B68DC
:104A800092B2A3F81422554A1268B3F81432A2F86D
:104A90001632524B1B681846FFF794FE67E24F4BE5
:104AA0001B680022DA8562E2FB68422B4CD14B4B3B
:104AB0001B68DB8D1A46494B1B681B8E013B9A42D3
:104AC00006DA464B1B68DA8D013292B2DA850DE0C8
:104AD000424B1B681B8E002B00F040823F4B1B6833
:104AE0001A8E3E4B1B68013A92B2DA853B4B1B682B
:104AF00003F5E170394B1A68384B1B68DB8D19469A
:104B00000B469B000B441B013033134402335022ED
:104B1000194606F087FA314B1B6803F5E173184616
:104B200006F0FCFB02462D4B1B6892B2A3F8142240
:104B30002A4A1268B3F81432A2F81632274B1B68BF
:104B40001846FFF73FFE12E2FB68442B12D1234BBD
:104B50001B68B3F81632002B00F00282214803F0E4
:104B600047FB1E4B1B68B3F81622013A92B2A3F81A
:104B70001622F5E1FB68432B20D1184B1B68B3F8D4
:104B80001622164B1B68B3F814329A4280F0EA8161
:104B9000124B1B68114A1268B2F81622134493F89C
:104BA000C2311946104803F023FB0C4B1B68B3F8C5
:104BB0001622013292B2A3F81622D3E1FB68002B31
:104BC00000F0D281FB68FF2B00F0CE81FB68092B3F
:104BD00035D10023FB610FE0A8050022A0050022CB
:104BE00068FB00026CFB000270FB0002AA4803F0A5
:104BF000FFFAFB690133FB61A84B1B68B3F816325F
:104C00001A46FB699342F1DBA44B1B6803F5E17381
:104C10001846FFF7B9FDA14B1B6803F5E173184671
:104C200006F07CFB02469D4B1B6892B2A3F814224F
:104C30009A4A1268B3F81432A2F8163297E1FB6868
:104C40007F2B02D0FB68082B7DD1944B1B68B3F8F7
:104C50001632002B00F08A81904B1B68B3F81422A7
:104C6000013A92B2A3F814228C4B1B68B3F81622B7
:104C7000013A92B2A3F81622884B1B68B3F81422AB
:104C8000864B1B68B3F816329A424ED9834B1A688A
:104C9000824B1B68B3F8163203F5E0731344981C7B
:104CA0007E4B1A687D4B1B68B3F81632013303F54F
:104CB000E0731344991C794B1B68B3F814321A46FD
:104CC000764B1B68B3F81632D31A1A4606F017FA59
:104CD000724B1B68714A1268B2F814221344002206
:104CE00083F8C2216D4B1A686C4B1B68B3F81632FF
:104CF00003F5E073134402331946694803F078FA68
:104D0000664B1B68B3F81632BB6105E0624803F0DE
:104D10006FFABB690133BB61604B1B68B3F8143297
:104D20001A46BB699342F1DD21E15E4803F060FA67
:104D30005A4B1B68594A1268B2F8142213440022D5
:104D400083F8C22113E1FB680D2B02D0FB680A2B0C
:104D500038D1524B1B681846FFF74EFD4F4B1B686E
:104D600093F82D3003F00103DBB2002B02D04E4844
:104D700003F03EFA494B1B6803F5E172474B1B6891
:104D8000B3F814321946104600F0F6FAFFF7C4FBE8
:104D900003461946454803F02BFA404B1B6803F5C0
:104DA000E17351220021184606F0D8F83B4B1B68EE
:104DB0000022A3F81422394A1268B3F81432A2F878
:104DC0001632D4E0354B1B68B3F814324F2B04D99C
:104DD000324B1B680022A3F81422304B1B68B3F837
:104DE00016222E4B1B68B3F814329A4277D22B4B03
:104DF0001B68B3F81422013292B2A3F81422274B95
:104E00001A68264B1B68B3F81632013303F5E073BA
:104E10001344981C214B1A68204B1B68B3F81632B8
:104E200003F5E0731344991C1C4B1B68B3F8143250
:104E30001A461A4B1B68B3F81632D31A1A4606F0F4
:104E40005EF9164B1B68154A1268B2F81622114615
:104E5000FA68D2B20B4483F8C221104B1B6893F856
:104E60002D3003F00103DBB2002B2FD00B4B1A685F
:104E70000A4B1B68B3F8163203F5E0731344023390
:104E800019460A4803F0B4F9044B1B68B3F816320C
:104E900001337B6112E000BF6CFB0002A005002221
:104EA00074FB00027CFB000254FB000268FB000262
:104EB0002F4803F09DF97B6901337B612D4B1B6803
:104EC000B3F814321A467B699342F1DB294B1B6815
:104ED000B3F81622013292B2A3F8162228E0254B2D
:104EE0001B68244A1268B2F814221146FA68D2B23A
:104EF0000B4483F8C2211F4B1B6893F82D3003F03D
:104F00000103DBB2002B03D0F9681B4803F070F9F2
:104F1000184B1B68B3F81422013292B2A3F8142282
:104F2000144B1B68B3F81622013292B2A3F8162272
:104F30000023FB600F4B1B68B3F814324F2B7FF636
:104F400035AD0C4B1B680022A3F81422094B1B68DB
:104F50000022A3F8162229E500BF27E500BF25E5BA
:104F600000BF23E500BF21E500BF1FE500BF1DE531
:104F70006CFB0002A005002270FB000280B483B02D
:104F800000AF78603960064A7B681360054A3B6869
:104F9000136000BF0C37BD465DF8047B704700BF4F
:104FA000980500229C05002280B584B002AF002342
:104FB0007B601D491D48FFF7E1FF4FF40771012099
:104FC00003F0B4FA03461A4A1360194B1B68002B0E
:104FD00005D1184803F00CF94FF0FF3320E00A2305
:104FE0000193142300934FF4805300221249134875
:104FF00005F00AF838600E4B1B68184600230022A3
:105000000F4902F007F90120FFF7C8FA3B68002BAF
:1050100005D07B68002B02D1386804F07DFF0023A7
:1050200018460837BD4680BD20EB000280EA00022A
:10503000A005002280FB00025949000298FB0002F3
:10504000A0FB000280B584B000AF786039600F48E3
:1050500003F0CEF80E4B1B68FB600AE0FB68196892
:10506000FB685B681A460B4803F0C2F8FB68103314
:10507000FB60094B1B68FA689A42EFD3074803F0BC
:10508000B7F8002318461037BD4680BDF4FB000278
:105090009805002210FC00029C0500221CFC000266
:1050A00080B582B000AF7860396000F015FD002354
:1050B00018460837BD4680BD80B582B000AF786025
:1050C000396001F053F9002318460837BD4680BD0A
:1050D00080B588B000AFF860B9607A60FB68FB61AA
:1050E0000023BB6100237B6194E0FB6900221A70FE
:1050F000FB690133FB61BB690133BB61FB691B7851
:10510000202B03D0FB691B78092B03D1BA69BB683C
:105110009A42EAD37B69092B19D9464803F068F80B
:1051200000233B610BE03B699B007A6813441B68DA
:105130001946414803F05CF83B6901333B613A6929
:105140007B699A42EFD33D4803F052F86DE0BA69AB
:10515000BB689A4264D2FB691B78222B3AD1FB6967
:105160000133FB61BB690133BB617B699B007A68DA
:105170001344FA691A607B6901337B6114E0FB69AF
:105180001B785C2B0AD1FB6901331B78222B05D1DC
:10519000FB690133FB61BB690133BB61FB6901330F
:1051A000FB61BB690133BB61FB691B78222B03D018
:1051B000BA69BB689A42E2D3BA69BB689A4231D2F3
:1051C000FB6900221A70FB690133FB61BB69013383
:1051D000BB611FE07B699B007A681344FA691A601F
:1051E0007B6901337B6105E0FB690133FB61BB69CE
:1051F0000133BB61FB691B78202B07D0FB691B784F
:10520000092B03D0BA69BB689A42EDD3BA69BB686F
:105210009A4209D2BA69BB689A42FFF46FAF04E0C0
:1052200000BF02E000BF00E000BF7B6918462037E6
:10523000BD4680BD20FC000240FC00021CFC0002B8
:1052400080B584B000AF786039600023BB60134B39
:105250001B68FB6017E0FB681B683A6879681846B2
:1052600006F010F80346002B0AD1FB681A683B6869
:1052700013441B78002B03D1FB68DB68BB6007E09D
:10528000FB681033FB60064B1B68FA689A42E2D356
:10529000BB6818461037BD4680BD00BF9805002288
:1052A0009C05002280B592B000AFF860B9607A60CA
:1052B00000237B64FB68002B05D14FF4A6722B49B9
:1052C0002B4803F073F97B68002B09D140F24D1293
:1052D0002649284803F06AF902E07B6C01337B64BD
:1052E0007A6CBB689A420BD2FA687B6C13441B78C9
:1052F000202B05D0FA687B6C13441B78092BECD16A
:105300007B6C002B02D16FF0FE032AE07B6C194608
:10531000F868FFF795FF38643B6C002B02D16FF003
:10532000FE031EE007F1140328220021184605F0B1
:1053300015FE07F114031A46B968F868FFF7C8FEAE
:10534000F863FB6B002B02D16FF0FE0309E007F15D
:1053500014023B6C1146F86B984702467B681A6052
:10536000002318464837BD4680BD00BF00FD00023F
:1053700044FC000248FC000280B584B000AF7860B5
:1053800039600023BB6005E07B6801337B603B68CC
:10539000013B3B603B68002B07D07B681B78202BD0
:1053A000F2D07B681B78092BEED03B68002B01D133
:1053B00000232BE007F108031A4639687868FFF7E5
:1053C00071FF0346002B0AD1BB68002B05DABB68CE
:1053D0001A4679680F4802F00BFFBB6816E07B683D
:1053E000FB6002E0FB680133FB60FB681B78202B4D
:1053F00003D0FB681B78002BF4D1FB6800221A70E5
:105400007968054802F0F4FE4FF0FF331846103774
:10541000BD4680BD50FC000268FC000280B485B02F
:1054200000AF786039607B68FB6005E0FB680133A2
:10543000FB603B6801333B60FB681B78002B09D0A5
:105440003B681B78002B05D0FB681A783B681B78FB
:105450009A42EBD0FA687B68D31A18461437BD46D7
:105460005DF8047B7047FFFF80B588B000AF7860BF
:105470000023FB610023BB617B681B78002B04D1F8
:1054800000210020FFF7DEFD3DE0204B1B687B6123
:105490002AE07B691B683B61786805F03FFF0346A3
:1054A0001A463969786805F0EDFE0346002B18D1DD
:1054B000FB69002B06D13B69BB61B86905F02EFF83
:1054C0000346FB613969B869FFF7A8FFF860FA681D
:1054D000FB699A4201DAFB68FB6139690C4802F00A
:1054E00087FE7B6910337B610A4B1B687A699A429D
:1054F000CFD3BB69002B05D0FB691A46B969786820
:1055000005F06EFE00BF2037BD4680BD9805002225
:1055100080FC00029C05002280B586B000AF786058
:1055200000233B612021786808F0CEFFB860BB689B
:10553000002B04D0BA687B68D31AFB6004E078685B
:1055400005F0ECFE0346FB60124B1B687B6117E025
:105550007B691B68FA687968184605F093FE034674
:10556000002B0AD17B691A68FB6813441B78002B57
:1055700003D17B699B683B6107E07B6910337B61EA
:10558000054B1B687A699A42E2D33B691846183783
:10559000BD4680BD980500229C05002280B485B0E0
:1055A00000AF786039600023FB607B68BB6017E068
:1055B000BB681B78202B10D1BB6801331B78002BF4
:1055C0000BD0BB6801331B78202B06D0BB685A1C5C
:1055D0003B681A60FB680133FB60BB680133BB604A
:1055E000BB681B78002BE3D1FB6818461437BD4617
:1055F0005DF8047B7047FFFF80B588B000AF78602E
:1056000039603B68FB610023BB6100237B617868E4
:1056100005F084FE03463B613B68FB612AE0FB69C1
:105620005B683A697968184605F02CFE0346002B42
:105630001DD17B69002B07D1FB695B68BB61B86931
:1056400005F06CFE03467B61FB695B681946B8692F
:10565000FFF7E4FEF860FA687B699A4201DAFB68BA
:105660007B61FB695B6819460C4802F0C1FDFB6970
:105670000C33FB61FB691B68002BD0D1084802F09A
:10568000B7FDBB69002B05D07B691A46B9697868FC
:1056900005F0A6FD00BF2037BD4680BD80FC00029E
:1056A0001CFC000280B584B000AF78607B68FB60B2
:1056B0000AE0FB685968FB689B681A46084802F0D4
:1056C00097FDFB680C33FB60FB681B68002BF0D177
:1056D000044802F08DFD00BF1037BD4680BD00BFFD
:1056E00010FC00021CFC000280B586B000AF7860A0
:1056F0000023FB6000237B6107F10C0319467868E7
:10570000FFF74CFF38613B69002B04D07868FFF746
:1057100003FF786118E0786805F000FE034619463B
:105720007868FFF78DFD0346002B0DD1786805F0F2
:10573000F5FD0346013B7A6813441B78202B03D107
:105740007868FFF7E9FE78617B69002B14D07B69EC
:105750001B68002B10D03B69002B03D03B69012B49
:1057600004D009E07869FFF79DFF05E0FB687969DF
:105770001846FFF741FF00BF00BF1837BD4680BD88
:1057800080B586B000AFF860B9607A607B687B61F5
:1057900000233B6112E07B695A68BB6804331B68D5
:1057A0001946104605F098FD0346002B03D17B698E
:1057B0001B683B610CE07B690C337B61FB68012B50
:1057C00006DD7B69002B03D07B691B68002BE2D1CF
:1057D0003B6918461837BD4680BDFFFF80B584B0D1
:1057E00000AF78607B68FB600AE0FB685968FB6883
:1057F0009B681A46084802F0FBFCFB680C33FB6010
:10580000FB68002B03D0FB681B68002BEDD100BFA9
:105810001037BD4680BD00BF84FC000280B483B059
:1058200000AF78607B68002B03D07B681B78002B6F
:1058300001D100231FE07B681B782B2B03D07B68F2
:105840001B782D2B12D17B6801337B600EE07B68C7
:105850001B7801330B4A13441B7803F00403002B1D
:1058600001D1002307E07B6801337B607B681B78F4
:10587000002BECD1012318460C37BD465DF8047BA4
:10588000704700BFDC22010280B483B000AF7860B3
:105890007B681B687A689A420CBF01230023DBB245
:1058A00018460C37BD465DF8047B704780B485B060
:1058B00000AF78600023FB607B68BB6005E0BB68DD
:1058C0001B68BB60FB680133FB60BB681B687A68C0
:1058D0009A42F4D1FB6818461437BD465DF8047B44
:1058E0007047FFFF80B500AF024802F081FC002343
:1058F000184680BD10FD000280B500AF02F0F0FB3D
:105900000023184680BDFFFF80B582B000AF7860ED
:1059100039607B68012B21DD3B6804331B68184923
:10592000184605F0D9FC0346002B19D17B68022BE1
:1059300018DD3B6808331B681946124802F058FC12
:105940003B6808331B68184602F0FCFB3B680833D1
:105950001B681846FEF7ACFE00230CE000BF02E017
:1059600000BF00E000BF084802F042FC074802F018
:105970003FFC6FF0FE0318460837BD4680BD00BFF0
:1059800018FD00021CFD000234FD000240FD000273
:1059900080B582B000AF786002E0064802F028FCD3
:1059A0007B685A1E7A60002BF7D100BF00BF083712
:1059B000BD4680BD70FD000280B586B000AFF860C6
:1059C0007A603B600B46FB72FB7A184603F024F9C1
:1059D00078617B6904333B61FB683A691A60FB6854
:1059E000FA7A1A72FB687A685A60FB683A68DA6079
:1059F000FB6800221A6100BF1837BD4680BD80B524
:105A00008AB000AF7860396000237B623B68002277
:105A10001A613B68DB68002B03D03B681B7A002BC4
:105A200001D1002353E03B681B687B617B69043B29
:105A30003B617B68002B04D17B693B6201237B6265
:105A400001E07B683B623B691033184601F0D4F8F3
:105A5000F8607B6A002B12D13B6A103BBB60BB68CD
:105A60001B7B23F080033A68127A934207D03B698C
:105A70001033F968184601F0CDF8002327E0002321
:105A8000BB613B685B68FB613B6A1B683B623A6ACF
:105A90007B699A4202D100233B620EE0BB6901336D
:105AA000BB61FB691A1DFA613A6A1A603B68DB68E0
:105AB000BA699A4200D0E7E700BF3B691033F96842
:105AC000184601F0A7F83B68BA691A613B6A1846A4
:105AD0002837BD4680BDFFFF2DE9F0419EB004AFE1
